{
  "_format": "hh-sol-artifact-1",
  "contractName": "ERC20",
  "sourceName": "contracts/ERC20.sol",
  "abi": [
    {
      "inputs": [
        {
          "internalType": "string",
          "name": "name_",
          "type": "string"
        },
        {
          "internalType": "string",
          "name": "symbol_",
          "type": "string"
        }
      ],
      "stateMutability": "nonpayable",
      "type": "constructor"
    },
    {
      "inputs": [
        {
          "internalType": "address",
          "name": "spender",
          "type": "address"
        },
        {
          "internalType": "uint256",
          "name": "currentAllowance",
          "type": "uint256"
        },
        {
          "internalType": "uint256",
          "name": "requestedDecrease",
          "type": "uint256"
        }
      ],
      "name": "ERC20FailedDecreaseAllowance",
      "type": "error"
    },
    {
      "inputs": [
        {
          "internalType": "address",
          "name": "spender",
          "type": "address"
        },
        {
          "internalType": "uint256",
          "name": "allowance",
          "type": "uint256"
        },
        {
          "internalType": "uint256",
          "name": "needed",
          "type": "uint256"
        }
      ],
      "name": "ERC20InsufficientAllowance",
      "type": "error"
    },
    {
      "inputs": [
        {
          "internalType": "address",
          "name": "sender",
          "type": "address"
        },
        {
          "internalType": "uint256",
          "name": "balance",
          "type": "uint256"
        },
        {
          "internalType": "uint256",
          "name": "needed",
          "type": "uint256"
        }
      ],
      "name": "ERC20InsufficientBalance",
      "type": "error"
    },
    {
      "inputs": [
        {
          "internalType": "address",
          "name": "approver",
          "type": "address"
        }
      ],
      "name": "ERC20InvalidApprover",
      "type": "error"
    },
    {
      "inputs": [
        {
          "internalType": "address",
          "name": "receiver",
          "type": "address"
        }
      ],
      "name": "ERC20InvalidReceiver",
      "type": "error"
    },
    {
      "inputs": [
        {
          "internalType": "address",
          "name": "sender",
          "type": "address"
        }
      ],
      "name": "ERC20InvalidSender",
      "type": "error"
    },
    {
      "inputs": [
        {
          "internalType": "address",
          "name": "spender",
          "type": "address"
        }
      ],
      "name": "ERC20InvalidSpender",
      "type": "error"
    },
    {
      "anonymous": false,
      "inputs": [
        {
          "indexed": true,
          "internalType": "address",
          "name": "owner",
          "type": "address"
        },
        {
          "indexed": true,
          "internalType": "address",
          "name": "spender",
          "type": "address"
        },
        {
          "indexed": false,
          "internalType": "uint256",
          "name": "value",
          "type": "uint256"
        }
      ],
      "name": "Approval",
      "type": "event"
    },
    {
      "anonymous": false,
      "inputs": [
        {
          "indexed": true,
          "internalType": "address",
          "name": "from",
          "type": "address"
        },
        {
          "indexed": true,
          "internalType": "address",
          "name": "to",
          "type": "address"
        },
        {
          "indexed": false,
          "internalType": "uint256",
          "name": "value",
          "type": "uint256"
        }
      ],
      "name": "Transfer",
      "type": "event"
    },
    {
      "inputs": [
        {
          "internalType": "address",
          "name": "owner",
          "type": "address"
        },
        {
          "internalType": "address",
          "name": "spender",
          "type": "address"
        }
      ],
      "name": "allowance",
      "outputs": [
        {
          "internalType": "uint256",
          "name": "",
          "type": "uint256"
        }
      ],
      "stateMutability": "view",
      "type": "function"
    },
    {
      "inputs": [
        {
          "internalType": "address",
          "name": "spender",
          "type": "address"
        },
        {
          "internalType": "uint256",
          "name": "value",
          "type": "uint256"
        }
      ],
      "name": "approve",
      "outputs": [
        {
          "internalType": "bool",
          "name": "",
          "type": "bool"
        }
      ],
      "stateMutability": "nonpayable",
      "type": "function"
    },
    {
      "inputs": [
        {
          "internalType": "address",
          "name": "account",
          "type": "address"
        }
      ],
      "name": "balanceOf",
      "outputs": [
        {
          "internalType": "uint256",
          "name": "",
          "type": "uint256"
        }
      ],
      "stateMutability": "view",
      "type": "function"
    },
    {
      "inputs": [],
      "name": "decimals",
      "outputs": [
        {
          "internalType": "uint8",
          "name": "",
          "type": "uint8"
        }
      ],
      "stateMutability": "view",
      "type": "function"
    },
    {
      "inputs": [
        {
          "internalType": "address",
          "name": "spender",
          "type": "address"
        },
        {
          "internalType": "uint256",
          "name": "requestedDecrease",
          "type": "uint256"
        }
      ],
      "name": "decreaseAllowance",
      "outputs": [
        {
          "internalType": "bool",
          "name": "",
          "type": "bool"
        }
      ],
      "stateMutability": "nonpayable",
      "type": "function"
    },
    {
      "inputs": [
        {
          "internalType": "address",
          "name": "spender",
          "type": "address"
        },
        {
          "internalType": "uint256",
          "name": "addedValue",
          "type": "uint256"
        }
      ],
      "name": "increaseAllowance",
      "outputs": [
        {
          "internalType": "bool",
          "name": "",
          "type": "bool"
        }
      ],
      "stateMutability": "nonpayable",
      "type": "function"
    },
    {
      "inputs": [],
      "name": "issuer",
      "outputs": [
        {
          "internalType": "address",
          "name": "",
          "type": "address"
        }
      ],
      "stateMutability": "view",
      "type": "function"
    },
    {
      "inputs": [
        {
          "internalType": "address",
          "name": "account",
          "type": "address"
        },
        {
          "internalType": "uint256",
          "name": "amountToMint",
          "type": "uint256"
        }
      ],
      "name": "mint",
      "outputs": [],
      "stateMutability": "nonpayable",
      "type": "function"
    },
    {
      "inputs": [],
      "name": "name",
      "outputs": [
        {
          "internalType": "string",
          "name": "",
          "type": "string"
        }
      ],
      "stateMutability": "view",
      "type": "function"
    },
    {
      "inputs": [],
      "name": "symbol",
      "outputs": [
        {
          "internalType": "string",
          "name": "",
          "type": "string"
        }
      ],
      "stateMutability": "view",
      "type": "function"
    },
    {
      "inputs": [],
      "name": "totalSupply",
      "outputs": [
        {
          "internalType": "uint256",
          "name": "",
          "type": "uint256"
        }
      ],
      "stateMutability": "view",
      "type": "function"
    },
    {
      "inputs": [
        {
          "internalType": "address",
          "name": "to",
          "type": "address"
        },
        {
          "internalType": "uint256",
          "name": "value",
          "type": "uint256"
        }
      ],
      "name": "transfer",
      "outputs": [
        {
          "internalType": "bool",
          "name": "",
          "type": "bool"
        }
      ],
      "stateMutability": "nonpayable",
      "type": "function"
    },
    {
      "inputs": [
        {
          "internalType": "address",
          "name": "from",
          "type": "address"
        },
        {
          "internalType": "address",
          "name": "to",
          "type": "address"
        },
        {
          "internalType": "uint256",
          "name": "value",
          "type": "uint256"
        }
      ],
      "name": "transferFrom",
      "outputs": [
        {
          "internalType": "bool",
          "name": "",
          "type": "bool"
        }
      ],
      "stateMutability": "nonpayable",
      "type": "function"
    }
  ],
  "bytecode": "0x608060405234801562000010575f80fd5b5060405162001e0c38038062001e0c833981810160405281019062000036919062000543565b8160039081620000479190620007fd565b508060049081620000599190620007fd565b506200006a6200010160201b60201c565b60055f6101000a81548173ffffffffffffffffffffffffffffffffffffffff021916908373ffffffffffffffffffffffffffffffffffffffff160217905550620000f9620000bd6200010160201b60201c565b620000cd6200010860201b60201c565b600a620000db919062000a6a565b6402540be400620000ed919062000aba565b6200011060201b60201c565b505062000c03565b5f33905090565b5f6012905090565b5f73ffffffffffffffffffffffffffffffffffffffff168273ffffffffffffffffffffffffffffffffffffffff160362000183575f6040517fec442f050000000000000000000000000000000000000000000000000000000081526004016200017a919062000b47565b60405180910390fd5b620001965f83836200019a60201b60201c565b5050565b5f73ffffffffffffffffffffffffffffffffffffffff168373ffffffffffffffffffffffffffffffffffffffff1603620001ee578060025f828254620001e1919062000b62565b92505081905550620002bf565b5f805f8573ffffffffffffffffffffffffffffffffffffffff1673ffffffffffffffffffffffffffffffffffffffff1681526020019081526020015f20549050818110156200027a578381836040517fe450d38c000000000000000000000000000000000000000000000000000000008152600401620002719392919062000bad565b60405180910390fd5b8181035f808673ffffffffffffffffffffffffffffffffffffffff1673ffffffffffffffffffffffffffffffffffffffff1681526020019081526020015f2081905550505b5f73ffffffffffffffffffffffffffffffffffffffff168273ffffffffffffffffffffffffffffffffffffffff160362000308578060025f828254039250508190555062000352565b805f808473ffffffffffffffffffffffffffffffffffffffff1673ffffffffffffffffffffffffffffffffffffffff1681526020019081526020015f205f82825401925050819055505b8173ffffffffffffffffffffffffffffffffffffffff168373ffffffffffffffffffffffffffffffffffffffff167fddf252ad1be2c89b69c2b068fc378daa952ba7f163c4a11628f55a4df523b3ef83604051620003b1919062000be8565b60405180910390a3505050565b5f604051905090565b5f80fd5b5f80fd5b5f80fd5b5f80fd5b5f601f19601f8301169050919050565b7f4e487b71000000000000000000000000000000000000000000000000000000005f52604160045260245ffd5b6200041f82620003d7565b810181811067ffffffffffffffff82111715620004415762000440620003e7565b5b80604052505050565b5f62000455620003be565b905062000463828262000414565b919050565b5f67ffffffffffffffff821115620004855762000484620003e7565b5b6200049082620003d7565b9050602081019050919050565b5f5b83811015620004bc5780820151818401526020810190506200049f565b5f8484015250505050565b5f620004dd620004d78462000468565b6200044a565b905082815260208101848484011115620004fc57620004fb620003d3565b5b620005098482856200049d565b509392505050565b5f82601f830112620005285762000527620003cf565b5b81516200053a848260208601620004c7565b91505092915050565b5f80604083850312156200055c576200055b620003c7565b5b5f83015167ffffffffffffffff8111156200057c576200057b620003cb565b5b6200058a8582860162000511565b925050602083015167ffffffffffffffff811115620005ae57620005ad620003cb565b5b620005bc8582860162000511565b9150509250929050565b5f81519050919050565b7f4e487b71000000000000000000000000000000000000000000000000000000005f52602260045260245ffd5b5f60028204905060018216806200061557607f821691505b6020821081036200062b576200062a620005d0565b5b50919050565b5f819050815f5260205f209050919050565b5f6020601f8301049050919050565b5f82821b905092915050565b5f600883026200068f7fffffffffffffffffffffffffffffffffffffffffffffffffffffffffffffffff8262000652565b6200069b868362000652565b95508019841693508086168417925050509392505050565b5f819050919050565b5f819050919050565b5f620006e5620006df620006d984620006b3565b620006bc565b620006b3565b9050919050565b5f819050919050565b6200070083620006c5565b620007186200070f82620006ec565b8484546200065e565b825550505050565b5f90565b6200072e62000720565b6200073b818484620006f5565b505050565b5b818110156200076257620007565f8262000724565b60018101905062000741565b5050565b601f821115620007b1576200077b8162000631565b620007868462000643565b8101602085101562000796578190505b620007ae620007a58562000643565b83018262000740565b50505b505050565b5f82821c905092915050565b5f620007d35f1984600802620007b6565b1980831691505092915050565b5f620007ed8383620007c2565b9150826002028217905092915050565b6200080882620005c6565b67ffffffffffffffff811115620008245762000823620003e7565b5b620008308254620005fd565b6200083d82828562000766565b5f60209050601f83116001811462000873575f84156200085e578287015190505b6200086a8582620007e0565b865550620008d9565b601f198416620008838662000631565b5f5b82811015620008ac5784890151825560018201915060208501945060208101905062000885565b86831015620008cc5784890151620008c8601f891682620007c2565b8355505b6001600288020188555050505b505050505050565b7f4e487b71000000000000000000000000000000000000000000000000000000005f52601160045260245ffd5b5f8160011c9050919050565b5f808291508390505b60018511156200096b57808604811115620009435762000942620008e1565b5b6001851615620009535780820291505b808102905062000963856200090e565b945062000923565b94509492505050565b5f8262000985576001905062000a57565b8162000994575f905062000a57565b8160018114620009ad5760028114620009b857620009ee565b600191505062000a57565b60ff841115620009cd57620009cc620008e1565b5b8360020a915084821115620009e757620009e6620008e1565b5b5062000a57565b5060208310610133831016604e8410600b841016171562000a285782820a90508381111562000a225762000a21620008e1565b5b62000a57565b62000a3784848460016200091a565b9250905081840481111562000a515762000a50620008e1565b5b81810290505b9392505050565b5f60ff82169050919050565b5f62000a7682620006b3565b915062000a838362000a5e565b925062000ab27fffffffffffffffffffffffffffffffffffffffffffffffffffffffffffffffff848462000974565b905092915050565b5f62000ac682620006b3565b915062000ad383620006b3565b925082820262000ae381620006b3565b9150828204841483151762000afd5762000afc620008e1565b5b5092915050565b5f73ffffffffffffffffffffffffffffffffffffffff82169050919050565b5f62000b2f8262000b04565b9050919050565b62000b418162000b23565b82525050565b5f60208201905062000b5c5f83018462000b36565b92915050565b5f62000b6e82620006b3565b915062000b7b83620006b3565b925082820190508082111562000b965762000b95620008e1565b5b92915050565b62000ba781620006b3565b82525050565b5f60608201905062000bc25f83018662000b36565b62000bd1602083018562000b9c565b62000be0604083018462000b9c565b949350505050565b5f60208201905062000bfd5f83018462000b9c565b92915050565b6111fb8062000c115f395ff3fe608060405234801561000f575f80fd5b50600436106100cd575f3560e01c8063395093511161008a57806395d89b411161006457806395d89b4114610225578063a457c2d714610243578063a9059cbb14610273578063dd62ed3e146102a3576100cd565b806339509351146101a957806340c10f19146101d957806370a08231146101f5576100cd565b806306fdde03146100d1578063095ea7b3146100ef57806318160ddd1461011f5780631d1438481461013d57806323b872dd1461015b578063313ce5671461018b575b5f80fd5b6100d96102d3565b6040516100e69190610d7e565b60405180910390f35b61010960048036038101906101049190610e2f565b610363565b6040516101169190610e87565b60405180910390f35b610127610385565b6040516101349190610eaf565b60405180910390f35b61014561038e565b6040516101529190610ed7565b60405180910390f35b61017560048036038101906101709190610ef0565b6103b3565b6040516101829190610e87565b60405180910390f35b6101936103e1565b6040516101a09190610f5b565b60405180910390f35b6101c360048036038101906101be9190610e2f565b6103e9565b6040516101d09190610e87565b60405180910390f35b6101f360048036038101906101ee9190610e2f565b61041f565b005b61020f600480360381019061020a9190610f74565b6104fe565b60405161021c9190610eaf565b60405180910390f35b61022d610543565b60405161023a9190610d7e565b60405180910390f35b61025d60048036038101906102589190610e2f565b6105d3565b60405161026a9190610e87565b60405180910390f35b61028d60048036038101906102889190610e2f565b61064e565b60405161029a9190610e87565b60405180910390f35b6102bd60048036038101906102b89190610f9f565b610670565b6040516102ca9190610eaf565b60405180910390f35b6060600380546102e29061100a565b80601f016020809104026020016040519081016040528092919081815260200182805461030e9061100a565b80156103595780601f1061033057610100808354040283529160200191610359565b820191905f5260205f20905b81548152906001019060200180831161033c57829003601f168201915b5050505050905090565b5f8061036d6106f2565b905061037a8185856106f9565b600191505092915050565b5f600254905090565b60055f9054906101000a900473ffffffffffffffffffffffffffffffffffffffff1681565b5f806103bd6106f2565b90506103ca85828561070b565b6103d585858561079d565b60019150509392505050565b5f6012905090565b5f806103f36106f2565b90506104148185856104058589610670565b61040f9190611067565b6106f9565b600191505092915050565b60055f9054906101000a900473ffffffffffffffffffffffffffffffffffffffff1673ffffffffffffffffffffffffffffffffffffffff163373ffffffffffffffffffffffffffffffffffffffff16146104ae576040517f08c379a00000000000000000000000000000000000000000000000000000000081526004016104a59061110a565b60405180910390fd5b5f81116104f0576040517f08c379a00000000000000000000000000000000000000000000000000000000081526004016104e790611172565b60405180910390fd5b6104fa828261088d565b5050565b5f805f8373ffffffffffffffffffffffffffffffffffffffff1673ffffffffffffffffffffffffffffffffffffffff1681526020019081526020015f20549050919050565b6060600480546105529061100a565b80601f016020809104026020016040519081016040528092919081815260200182805461057e9061100a565b80156105c95780601f106105a0576101008083540402835291602001916105c9565b820191905f5260205f20905b8154815290600101906020018083116105ac57829003601f168201915b5050505050905090565b5f806105dd6106f2565b90505f6105ea8286610670565b905083811015610635578481856040517fa60f030c00000000000000000000000000000000000000000000000000000000815260040161062c93929190611190565b60405180910390fd5b61064282868684036106f9565b60019250505092915050565b5f806106586106f2565b905061066581858561079d565b600191505092915050565b5f60015f8473ffffffffffffffffffffffffffffffffffffffff1673ffffffffffffffffffffffffffffffffffffffff1681526020019081526020015f205f8373ffffffffffffffffffffffffffffffffffffffff1673ffffffffffffffffffffffffffffffffffffffff1681526020019081526020015f2054905092915050565b5f33905090565b610706838383600161090c565b505050565b5f6107168484610670565b90507fffffffffffffffffffffffffffffffffffffffffffffffffffffffffffffffff81146107975781811015610788578281836040517ffb8f41b200000000000000000000000000000000000000000000000000000000815260040161077f93929190611190565b60405180910390fd5b61079684848484035f61090c565b5b50505050565b5f73ffffffffffffffffffffffffffffffffffffffff168373ffffffffffffffffffffffffffffffffffffffff160361080d575f6040517f96c6fd1e0000000000000000000000000000000000000000000000000000000081526004016108049190610ed7565b60405180910390fd5b5f73ffffffffffffffffffffffffffffffffffffffff168273ffffffffffffffffffffffffffffffffffffffff160361087d575f6040517fec442f050000000000000000000000000000000000000000000000000000000081526004016108749190610ed7565b60405180910390fd5b610888838383610adb565b505050565b5f73ffffffffffffffffffffffffffffffffffffffff168273ffffffffffffffffffffffffffffffffffffffff16036108fd575f6040517fec442f050000000000000000000000000000000000000000000000000000000081526004016108f49190610ed7565b60405180910390fd5b6109085f8383610adb565b5050565b5f73ffffffffffffffffffffffffffffffffffffffff168473ffffffffffffffffffffffffffffffffffffffff160361097c575f6040517fe602df050000000000000000000000000000000000000000000000000000000081526004016109739190610ed7565b60405180910390fd5b5f73ffffffffffffffffffffffffffffffffffffffff168373ffffffffffffffffffffffffffffffffffffffff16036109ec575f6040517f94280d620000000000000000000000000000000000000000000000000000000081526004016109e39190610ed7565b60405180910390fd5b8160015f8673ffffffffffffffffffffffffffffffffffffffff1673ffffffffffffffffffffffffffffffffffffffff1681526020019081526020015f205f8573ffffffffffffffffffffffffffffffffffffffff1673ffffffffffffffffffffffffffffffffffffffff1681526020019081526020015f20819055508015610ad5578273ffffffffffffffffffffffffffffffffffffffff168473ffffffffffffffffffffffffffffffffffffffff167f8c5be1e5ebec7d5bd14f71427d1e84f3dd0314c0f7b2291e5b200ac8c7c3b92584604051610acc9190610eaf565b60405180910390a35b50505050565b5f73ffffffffffffffffffffffffffffffffffffffff168373ffffffffffffffffffffffffffffffffffffffff1603610b2b578060025f828254610b1f9190611067565b92505081905550610bf9565b5f805f8573ffffffffffffffffffffffffffffffffffffffff1673ffffffffffffffffffffffffffffffffffffffff1681526020019081526020015f2054905081811015610bb4578381836040517fe450d38c000000000000000000000000000000000000000000000000000000008152600401610bab93929190611190565b60405180910390fd5b8181035f808673ffffffffffffffffffffffffffffffffffffffff1673ffffffffffffffffffffffffffffffffffffffff1681526020019081526020015f2081905550505b5f73ffffffffffffffffffffffffffffffffffffffff168273ffffffffffffffffffffffffffffffffffffffff1603610c40578060025f8282540392505081905550610c8a565b805f808473ffffffffffffffffffffffffffffffffffffffff1673ffffffffffffffffffffffffffffffffffffffff1681526020019081526020015f205f82825401925050819055505b8173ffffffffffffffffffffffffffffffffffffffff168373ffffffffffffffffffffffffffffffffffffffff167fddf252ad1be2c89b69c2b068fc378daa952ba7f163c4a11628f55a4df523b3ef83604051610ce79190610eaf565b60405180910390a3505050565b5f81519050919050565b5f82825260208201905092915050565b5f5b83811015610d2b578082015181840152602081019050610d10565b5f8484015250505050565b5f601f19601f8301169050919050565b5f610d5082610cf4565b610d5a8185610cfe565b9350610d6a818560208601610d0e565b610d7381610d36565b840191505092915050565b5f6020820190508181035f830152610d968184610d46565b905092915050565b5f80fd5b5f73ffffffffffffffffffffffffffffffffffffffff82169050919050565b5f610dcb82610da2565b9050919050565b610ddb81610dc1565b8114610de5575f80fd5b50565b5f81359050610df681610dd2565b92915050565b5f819050919050565b610e0e81610dfc565b8114610e18575f80fd5b50565b5f81359050610e2981610e05565b92915050565b5f8060408385031215610e4557610e44610d9e565b5b5f610e5285828601610de8565b9250506020610e6385828601610e1b565b9150509250929050565b5f8115159050919050565b610e8181610e6d565b82525050565b5f602082019050610e9a5f830184610e78565b92915050565b610ea981610dfc565b82525050565b5f602082019050610ec25f830184610ea0565b92915050565b610ed181610dc1565b82525050565b5f602082019050610eea5f830184610ec8565b92915050565b5f805f60608486031215610f0757610f06610d9e565b5b5f610f1486828701610de8565b9350506020610f2586828701610de8565b9250506040610f3686828701610e1b565b9150509250925092565b5f60ff82169050919050565b610f5581610f40565b82525050565b5f602082019050610f6e5f830184610f4c565b92915050565b5f60208284031215610f8957610f88610d9e565b5b5f610f9684828501610de8565b91505092915050565b5f8060408385031215610fb557610fb4610d9e565b5b5f610fc285828601610de8565b9250506020610fd385828601610de8565b9150509250929050565b7f4e487b71000000000000000000000000000000000000000000000000000000005f52602260045260245ffd5b5f600282049050600182168061102157607f821691505b60208210810361103457611033610fdd565b5b50919050565b7f4e487b71000000000000000000000000000000000000000000000000000000005f52601160045260245ffd5b5f61107182610dfc565b915061107c83610dfc565b92508282019050808211156110945761109361103a565b5b92915050565b7f4f6e6c7920746865206f776e6572206f72206973737565722063616e2063616c5f8201527f6c20746869732066756e6374696f6e0000000000000000000000000000000000602082015250565b5f6110f4602f83610cfe565b91506110ff8261109a565b604082019050919050565b5f6020820190508181035f830152611121816110e8565b9050919050565b7f4d696e7420616d6f756e742073686f756c646e2774206265207a65726f0000005f82015250565b5f61115c601d83610cfe565b915061116782611128565b602082019050919050565b5f6020820190508181035f83015261118981611150565b9050919050565b5f6060820190506111a35f830186610ec8565b6111b06020830185610ea0565b6111bd6040830184610ea0565b94935050505056fea2646970667358221220ee7ce807bb401e39e42f3b1f0c0e6f55a9c7c45ea0a38f9eace2536d4f5dd56364736f6c63430008140033",
  "linkReferences": {},
  "deployedLinkReferences": {}
}