{
  "_format": "hh-sol-artifact-1",
  "contractName": "XALTS",
  "sourceName": "contracts/XALTS.sol",
  "abi": [
    {
      "inputs": [
        {
          "internalType": "string",
          "name": "name_",
          "type": "string"
        },
        {
          "internalType": "string",
          "name": "symbol_",
          "type": "string"
        },
        {
          "internalType": "uint256",
          "name": "_price",
          "type": "uint256"
        },
        {
          "internalType": "bytes32",
          "name": "_root",
          "type": "bytes32"
        },
        {
          "internalType": "address[]",
          "name": "_wallet",
          "type": "address[]"
        }
      ],
      "stateMutability": "nonpayable",
      "type": "constructor"
    },
    {
      "inputs": [
        {
          "internalType": "address",
          "name": "spender",
          "type": "address"
        },
        {
          "internalType": "uint256",
          "name": "currentAllowance",
          "type": "uint256"
        },
        {
          "internalType": "uint256",
          "name": "requestedDecrease",
          "type": "uint256"
        }
      ],
      "name": "ERC20FailedDecreaseAllowance",
      "type": "error"
    },
    {
      "inputs": [
        {
          "internalType": "address",
          "name": "spender",
          "type": "address"
        },
        {
          "internalType": "uint256",
          "name": "allowance",
          "type": "uint256"
        },
        {
          "internalType": "uint256",
          "name": "needed",
          "type": "uint256"
        }
      ],
      "name": "ERC20InsufficientAllowance",
      "type": "error"
    },
    {
      "inputs": [
        {
          "internalType": "address",
          "name": "sender",
          "type": "address"
        },
        {
          "internalType": "uint256",
          "name": "balance",
          "type": "uint256"
        },
        {
          "internalType": "uint256",
          "name": "needed",
          "type": "uint256"
        }
      ],
      "name": "ERC20InsufficientBalance",
      "type": "error"
    },
    {
      "inputs": [
        {
          "internalType": "address",
          "name": "approver",
          "type": "address"
        }
      ],
      "name": "ERC20InvalidApprover",
      "type": "error"
    },
    {
      "inputs": [
        {
          "internalType": "address",
          "name": "receiver",
          "type": "address"
        }
      ],
      "name": "ERC20InvalidReceiver",
      "type": "error"
    },
    {
      "inputs": [
        {
          "internalType": "address",
          "name": "sender",
          "type": "address"
        }
      ],
      "name": "ERC20InvalidSender",
      "type": "error"
    },
    {
      "inputs": [
        {
          "internalType": "address",
          "name": "spender",
          "type": "address"
        }
      ],
      "name": "ERC20InvalidSpender",
      "type": "error"
    },
    {
      "anonymous": false,
      "inputs": [
        {
          "indexed": true,
          "internalType": "address",
          "name": "owner",
          "type": "address"
        },
        {
          "indexed": true,
          "internalType": "address",
          "name": "spender",
          "type": "address"
        },
        {
          "indexed": false,
          "internalType": "uint256",
          "name": "value",
          "type": "uint256"
        }
      ],
      "name": "Approval",
      "type": "event"
    },
    {
      "anonymous": false,
      "inputs": [
        {
          "indexed": true,
          "internalType": "address",
          "name": "from",
          "type": "address"
        },
        {
          "indexed": true,
          "internalType": "address",
          "name": "to",
          "type": "address"
        },
        {
          "indexed": false,
          "internalType": "uint256",
          "name": "value",
          "type": "uint256"
        }
      ],
      "name": "Transfer",
      "type": "event"
    },
    {
      "anonymous": false,
      "inputs": [
        {
          "indexed": true,
          "internalType": "address",
          "name": "wallet",
          "type": "address"
        }
      ],
      "name": "WalletBlacklisted",
      "type": "event"
    },
    {
      "anonymous": false,
      "inputs": [
        {
          "indexed": true,
          "internalType": "address",
          "name": "wallet",
          "type": "address"
        }
      ],
      "name": "WalletWhitelisted",
      "type": "event"
    },
    {
      "inputs": [
        {
          "internalType": "address[]",
          "name": "_wallet",
          "type": "address[]"
        }
      ],
      "name": "addWalletAddress",
      "outputs": [],
      "stateMutability": "nonpayable",
      "type": "function"
    },
    {
      "inputs": [
        {
          "internalType": "address",
          "name": "_owner",
          "type": "address"
        },
        {
          "internalType": "address",
          "name": "spender",
          "type": "address"
        }
      ],
      "name": "allowance",
      "outputs": [
        {
          "internalType": "uint256",
          "name": "",
          "type": "uint256"
        }
      ],
      "stateMutability": "view",
      "type": "function"
    },
    {
      "inputs": [
        {
          "internalType": "address",
          "name": "spender",
          "type": "address"
        },
        {
          "internalType": "uint256",
          "name": "value",
          "type": "uint256"
        }
      ],
      "name": "approve",
      "outputs": [
        {
          "internalType": "bool",
          "name": "",
          "type": "bool"
        }
      ],
      "stateMutability": "nonpayable",
      "type": "function"
    },
    {
      "inputs": [
        {
          "internalType": "address",
          "name": "account",
          "type": "address"
        }
      ],
      "name": "balanceOf",
      "outputs": [
        {
          "internalType": "uint256",
          "name": "",
          "type": "uint256"
        }
      ],
      "stateMutability": "view",
      "type": "function"
    },
    {
      "inputs": [
        {
          "internalType": "address[]",
          "name": "_wallet",
          "type": "address[]"
        }
      ],
      "name": "blacklist",
      "outputs": [],
      "stateMutability": "nonpayable",
      "type": "function"
    },
    {
      "inputs": [],
      "name": "decimals",
      "outputs": [
        {
          "internalType": "uint8",
          "name": "",
          "type": "uint8"
        }
      ],
      "stateMutability": "view",
      "type": "function"
    },
    {
      "inputs": [
        {
          "internalType": "address",
          "name": "spender",
          "type": "address"
        },
        {
          "internalType": "uint256",
          "name": "requestedDecrease",
          "type": "uint256"
        }
      ],
      "name": "decreaseAllowance",
      "outputs": [
        {
          "internalType": "bool",
          "name": "",
          "type": "bool"
        }
      ],
      "stateMutability": "nonpayable",
      "type": "function"
    },
    {
      "inputs": [
        {
          "internalType": "address",
          "name": "spender",
          "type": "address"
        },
        {
          "internalType": "uint256",
          "name": "addedValue",
          "type": "uint256"
        }
      ],
      "name": "increaseAllowance",
      "outputs": [
        {
          "internalType": "bool",
          "name": "",
          "type": "bool"
        }
      ],
      "stateMutability": "nonpayable",
      "type": "function"
    },
    {
      "inputs": [
        {
          "internalType": "address",
          "name": "",
          "type": "address"
        }
      ],
      "name": "isBlacklisted",
      "outputs": [
        {
          "internalType": "bool",
          "name": "",
          "type": "bool"
        }
      ],
      "stateMutability": "view",
      "type": "function"
    },
    {
      "inputs": [
        {
          "internalType": "address",
          "name": "wallet",
          "type": "address"
        }
      ],
      "name": "isBlacklistedAddress",
      "outputs": [
        {
          "internalType": "bool",
          "name": "",
          "type": "bool"
        }
      ],
      "stateMutability": "view",
      "type": "function"
    },
    {
      "inputs": [
        {
          "internalType": "address",
          "name": "wallet",
          "type": "address"
        },
        {
          "internalType": "bytes32[]",
          "name": "proof",
          "type": "bytes32[]"
        }
      ],
      "name": "isValidWhitelistAddress",
      "outputs": [
        {
          "internalType": "bool",
          "name": "",
          "type": "bool"
        }
      ],
      "stateMutability": "view",
      "type": "function"
    },
    {
      "inputs": [
        {
          "internalType": "address",
          "name": "",
          "type": "address"
        }
      ],
      "name": "isWhitelisted",
      "outputs": [
        {
          "internalType": "bool",
          "name": "",
          "type": "bool"
        }
      ],
      "stateMutability": "view",
      "type": "function"
    },
    {
      "inputs": [
        {
          "internalType": "address",
          "name": "wallet",
          "type": "address"
        }
      ],
      "name": "isWhitelistedAddress",
      "outputs": [
        {
          "internalType": "bool",
          "name": "",
          "type": "bool"
        }
      ],
      "stateMutability": "view",
      "type": "function"
    },
    {
      "inputs": [
        {
          "internalType": "address",
          "name": "account",
          "type": "address"
        },
        {
          "internalType": "uint256",
          "name": "amountToMint",
          "type": "uint256"
        }
      ],
      "name": "mint",
      "outputs": [],
      "stateMutability": "nonpayable",
      "type": "function"
    },
    {
      "inputs": [],
      "name": "name",
      "outputs": [
        {
          "internalType": "string",
          "name": "",
          "type": "string"
        }
      ],
      "stateMutability": "view",
      "type": "function"
    },
    {
      "inputs": [],
      "name": "owner",
      "outputs": [
        {
          "internalType": "address",
          "name": "",
          "type": "address"
        }
      ],
      "stateMutability": "view",
      "type": "function"
    },
    {
      "inputs": [],
      "name": "price",
      "outputs": [
        {
          "internalType": "uint256",
          "name": "",
          "type": "uint256"
        }
      ],
      "stateMutability": "view",
      "type": "function"
    },
    {
      "inputs": [
        {
          "internalType": "uint256",
          "name": "amountToPurchase",
          "type": "uint256"
        }
      ],
      "name": "purchaseTokens",
      "outputs": [],
      "stateMutability": "payable",
      "type": "function"
    },
    {
      "inputs": [],
      "name": "root",
      "outputs": [
        {
          "internalType": "bytes32",
          "name": "",
          "type": "bytes32"
        }
      ],
      "stateMutability": "view",
      "type": "function"
    },
    {
      "inputs": [
        {
          "internalType": "uint256",
          "name": "_price",
          "type": "uint256"
        }
      ],
      "name": "setPrice",
      "outputs": [],
      "stateMutability": "nonpayable",
      "type": "function"
    },
    {
      "inputs": [],
      "name": "symbol",
      "outputs": [
        {
          "internalType": "string",
          "name": "",
          "type": "string"
        }
      ],
      "stateMutability": "view",
      "type": "function"
    },
    {
      "inputs": [],
      "name": "totalSupply",
      "outputs": [
        {
          "internalType": "uint256",
          "name": "",
          "type": "uint256"
        }
      ],
      "stateMutability": "view",
      "type": "function"
    },
    {
      "inputs": [
        {
          "internalType": "address",
          "name": "to",
          "type": "address"
        },
        {
          "internalType": "uint256",
          "name": "amount",
          "type": "uint256"
        }
      ],
      "name": "transfer",
      "outputs": [
        {
          "internalType": "bool",
          "name": "",
          "type": "bool"
        }
      ],
      "stateMutability": "nonpayable",
      "type": "function"
    },
    {
      "inputs": [
        {
          "internalType": "address",
          "name": "from",
          "type": "address"
        },
        {
          "internalType": "address",
          "name": "to",
          "type": "address"
        },
        {
          "internalType": "uint256",
          "name": "value",
          "type": "uint256"
        }
      ],
      "name": "transferFrom",
      "outputs": [
        {
          "internalType": "bool",
          "name": "",
          "type": "bool"
        }
      ],
      "stateMutability": "nonpayable",
      "type": "function"
    },
    {
      "inputs": [],
      "name": "walletAddressList",
      "outputs": [
        {
          "internalType": "address[]",
          "name": "",
          "type": "address[]"
        },
        {
          "internalType": "uint256",
          "name": "length",
          "type": "uint256"
        }
      ],
      "stateMutability": "view",
      "type": "function"
    },
    {
      "inputs": [
        {
          "internalType": "address[]",
          "name": "_wallet",
          "type": "address[]"
        }
      ],
      "name": "whitelist",
      "outputs": [],
      "stateMutability": "nonpayable",
      "type": "function"
    }
  ],
  "bytecode": "0x608060405234801562000010575f80fd5b5060405162005e0038038062005e00833981810160405281019062000036919062000c35565b846001908162000047919062000f44565b50836002908162000059919062000f44565b506200006a6200015e60201b60201c565b60075f6101000a81548173ffffffffffffffffffffffffffffffffffffffff021916908373ffffffffffffffffffffffffffffffffffffffff160217905550612710670de0b6b3a764000084620000c2919062001055565b620000ce9190620010cc565b600b8190555081600a819055508060089080519060200190620000f39291906200085f565b5062000105816200016560201b60201c565b62000153620001196200015e60201b60201c565b62000129620005a860201b60201c565b600a6200013791906200125f565b620f424062000147919062001055565b620005b060201b60201c565b505050505062001499565b5f33905090565b60075f9054906101000a900473ffffffffffffffffffffffffffffffffffffffff1673ffffffffffffffffffffffffffffffffffffffff163373ffffffffffffffffffffffffffffffffffffffff1614620001f7576040517f08c379a0000000000000000000000000000000000000000000000000000000008152600401620001ee9062001333565b60405180910390fd5b5f5b8151811015620005a457600160055f8484815181106200021e576200021d62001353565b5b602002602001015173ffffffffffffffffffffffffffffffffffffffff1673ffffffffffffffffffffffffffffffffffffffff1681526020019081526020015f205f6101000a81548160ff0219169083151502179055505f60065f8484815181106200028f576200028e62001353565b5b602002602001015173ffffffffffffffffffffffffffffffffffffffff1673ffffffffffffffffffffffffffffffffffffffff1681526020019081526020015f205f6101000a81548160ff021916908315150217905550818181518110620002fc57620002fb62001353565b5b602002602001015173ffffffffffffffffffffffffffffffffffffffff167f12c94d2725e3b811140fad6a73350adbd38646149c9a9a62ffc1018bec2ec97c60405160405180910390a25f60095f84848151811062000360576200035f62001353565b5b602002602001015173ffffffffffffffffffffffffffffffffffffffff1673ffffffffffffffffffffffffffffffffffffffff1681526020019081526020015f208054806020026020016040519081016040528092919081815260200182805480156200042057602002820191905f5260205f20905b815f9054906101000a900473ffffffffffffffffffffffffffffffffffffffff1673ffffffffffffffffffffffffffffffffffffffff1681526020019060010190808311620003d6575b505050505090505f5b81518110156200058c575f60065f8486815181106200044d576200044c62001353565b5b602002602001015173ffffffffffffffffffffffffffffffffffffffff1673ffffffffffffffffffffffffffffffffffffffff1681526020019081526020015f205f6101000a81548160ff021916908315150217905550600160055f848681518110620004bf57620004be62001353565b5b602002602001015173ffffffffffffffffffffffffffffffffffffffff1673ffffffffffffffffffffffffffffffffffffffff1681526020019081526020015f205f6101000a81548160ff0219169083151502179055508183815181106200052c576200052b62001353565b5b602002602001015173ffffffffffffffffffffffffffffffffffffffff167f12c94d2725e3b811140fad6a73350adbd38646149c9a9a62ffc1018bec2ec97c60405160405180910390a28080620005839062001380565b91505062000429565b505080806200059b9062001380565b915050620001f9565b5050565b5f6012905090565b5f73ffffffffffffffffffffffffffffffffffffffff168273ffffffffffffffffffffffffffffffffffffffff160362000623575f6040517fec442f050000000000000000000000000000000000000000000000000000000081526004016200061a9190620013dd565b60405180910390fd5b620006365f83836200063a60201b60201c565b5050565b5f73ffffffffffffffffffffffffffffffffffffffff168373ffffffffffffffffffffffffffffffffffffffff16036200068d57805f80828254620006809190620013f8565b9250508190555062000760565b5f60035f8573ffffffffffffffffffffffffffffffffffffffff1673ffffffffffffffffffffffffffffffffffffffff1681526020019081526020015f20549050818110156200071a578381836040517fe450d38c000000000000000000000000000000000000000000000000000000008152600401620007119392919062001443565b60405180910390fd5b81810360035f8673ffffffffffffffffffffffffffffffffffffffff1673ffffffffffffffffffffffffffffffffffffffff1681526020019081526020015f2081905550505b5f73ffffffffffffffffffffffffffffffffffffffff168273ffffffffffffffffffffffffffffffffffffffff1603620007a857805f808282540392505081905550620007f3565b8060035f8473ffffffffffffffffffffffffffffffffffffffff1673ffffffffffffffffffffffffffffffffffffffff1681526020019081526020015f205f82825401925050819055505b8173ffffffffffffffffffffffffffffffffffffffff168373ffffffffffffffffffffffffffffffffffffffff167fddf252ad1be2c89b69c2b068fc378daa952ba7f163c4a11628f55a4df523b3ef836040516200085291906200147e565b60405180910390a3505050565b828054828255905f5260205f20908101928215620008d8579160200282015b82811115620008d7578251825f6101000a81548173ffffffffffffffffffffffffffffffffffffffff021916908373ffffffffffffffffffffffffffffffffffffffff160217905550916020019190600101906200087e565b5b509050620008e79190620008eb565b5090565b5b8082111562000904575f815f905550600101620008ec565b5090565b5f604051905090565b5f80fd5b5f80fd5b5f80fd5b5f80fd5b5f601f19601f8301169050919050565b7f4e487b71000000000000000000000000000000000000000000000000000000005f52604160045260245ffd5b620009698262000921565b810181811067ffffffffffffffff821117156200098b576200098a62000931565b5b80604052505050565b5f6200099f62000908565b9050620009ad82826200095e565b919050565b5f67ffffffffffffffff821115620009cf57620009ce62000931565b5b620009da8262000921565b9050602081019050919050565b5f5b8381101562000a06578082015181840152602081019050620009e9565b5f8484015250505050565b5f62000a2762000a2184620009b2565b62000994565b90508281526020810184848401111562000a465762000a456200091d565b5b62000a53848285620009e7565b509392505050565b5f82601f83011262000a725762000a7162000919565b5b815162000a8484826020860162000a11565b91505092915050565b5f819050919050565b62000aa18162000a8d565b811462000aac575f80fd5b50565b5f8151905062000abf8162000a96565b92915050565b5f819050919050565b62000ad98162000ac5565b811462000ae4575f80fd5b50565b5f8151905062000af78162000ace565b92915050565b5f67ffffffffffffffff82111562000b1a5762000b1962000931565b5b602082029050602081019050919050565b5f80fd5b5f73ffffffffffffffffffffffffffffffffffffffff82169050919050565b5f62000b5a8262000b2f565b9050919050565b62000b6c8162000b4e565b811462000b77575f80fd5b50565b5f8151905062000b8a8162000b61565b92915050565b5f62000ba662000ba08462000afd565b62000994565b9050808382526020820190506020840283018581111562000bcc5762000bcb62000b2b565b5b835b8181101562000bf9578062000be4888262000b7a565b84526020840193505060208101905062000bce565b5050509392505050565b5f82601f83011262000c1a5762000c1962000919565b5b815162000c2c84826020860162000b90565b91505092915050565b5f805f805f60a0868803121562000c515762000c5062000911565b5b5f86015167ffffffffffffffff81111562000c715762000c7062000915565b5b62000c7f8882890162000a5b565b955050602086015167ffffffffffffffff81111562000ca35762000ca262000915565b5b62000cb18882890162000a5b565b945050604062000cc48882890162000aaf565b935050606062000cd78882890162000ae7565b925050608086015167ffffffffffffffff81111562000cfb5762000cfa62000915565b5b62000d098882890162000c03565b9150509295509295909350565b5f81519050919050565b7f4e487b71000000000000000000000000000000000000000000000000000000005f52602260045260245ffd5b5f600282049050600182168062000d6557607f821691505b60208210810362000d7b5762000d7a62000d20565b5b50919050565b5f819050815f5260205f209050919050565b5f6020601f8301049050919050565b5f82821b905092915050565b5f6008830262000ddf7fffffffffffffffffffffffffffffffffffffffffffffffffffffffffffffffff8262000da2565b62000deb868362000da2565b95508019841693508086168417925050509392505050565b5f819050919050565b5f62000e2c62000e2662000e208462000a8d565b62000e03565b62000a8d565b9050919050565b5f819050919050565b62000e478362000e0c565b62000e5f62000e568262000e33565b84845462000dae565b825550505050565b5f90565b62000e7562000e67565b62000e8281848462000e3c565b505050565b5b8181101562000ea95762000e9d5f8262000e6b565b60018101905062000e88565b5050565b601f82111562000ef85762000ec28162000d81565b62000ecd8462000d93565b8101602085101562000edd578190505b62000ef562000eec8562000d93565b83018262000e87565b50505b505050565b5f82821c905092915050565b5f62000f1a5f198460080262000efd565b1980831691505092915050565b5f62000f34838362000f09565b9150826002028217905092915050565b62000f4f8262000d16565b67ffffffffffffffff81111562000f6b5762000f6a62000931565b5b62000f77825462000d4d565b62000f8482828562000ead565b5f60209050601f83116001811462000fba575f841562000fa5578287015190505b62000fb1858262000f27565b86555062001020565b601f19841662000fca8662000d81565b5f5b8281101562000ff35784890151825560018201915060208501945060208101905062000fcc565b868310156200101357848901516200100f601f89168262000f09565b8355505b6001600288020188555050505b505050505050565b7f4e487b71000000000000000000000000000000000000000000000000000000005f52601160045260245ffd5b5f620010618262000a8d565b91506200106e8362000a8d565b92508282026200107e8162000a8d565b9150828204841483151762001098576200109762001028565b5b5092915050565b7f4e487b71000000000000000000000000000000000000000000000000000000005f52601260045260245ffd5b5f620010d88262000a8d565b9150620010e58362000a8d565b925082620010f857620010f76200109f565b5b828204905092915050565b5f8160011c9050919050565b5f808291508390505b6001851115620011605780860481111562001138576200113762001028565b5b6001851615620011485780820291505b8081029050620011588562001103565b945062001118565b94509492505050565b5f826200117a57600190506200124c565b8162001189575f90506200124c565b8160018114620011a25760028114620011ad57620011e3565b60019150506200124c565b60ff841115620011c257620011c162001028565b5b8360020a915084821115620011dc57620011db62001028565b5b506200124c565b5060208310610133831016604e8410600b84101617156200121d5782820a90508381111562001217576200121662001028565b5b6200124c565b6200122c84848460016200110f565b9250905081840481111562001246576200124562001028565b5b81810290505b9392505050565b5f60ff82169050919050565b5f6200126b8262000a8d565b9150620012788362001253565b9250620012a77fffffffffffffffffffffffffffffffffffffffffffffffffffffffffffffffff848462001169565b905092915050565b5f82825260208201905092915050565b7f4f6e6c7920746865206f776e6572206f72206973737565722063616e2063616c5f8201527f6c20746869732066756e6374696f6e0000000000000000000000000000000000602082015250565b5f6200131b602f83620012af565b91506200132882620012bf565b604082019050919050565b5f6020820190508181035f8301526200134c816200130d565b9050919050565b7f4e487b71000000000000000000000000000000000000000000000000000000005f52603260045260245ffd5b5f6200138c8262000a8d565b91507fffffffffffffffffffffffffffffffffffffffffffffffffffffffffffffffff8203620013c157620013c062001028565b5b600182019050919050565b620013d78162000b4e565b82525050565b5f602082019050620013f25f830184620013cc565b92915050565b5f620014048262000a8d565b9150620014118362000a8d565b92508282019050808211156200142c576200142b62001028565b5b92915050565b6200143d8162000a8d565b82525050565b5f606082019050620014585f830186620013cc565b62001467602083018562001432565b62001476604083018462001432565b949350505050565b5f602082019050620014935f83018462001432565b92915050565b61495980620014a75f395ff3fe608060405260043610610180575f3560e01c80637b97008d116100d0578063a9059cbb11610089578063dd62ed3e11610063578063dd62ed3e146105bf578063ebf0c717146105fb578063ef67441914610625578063fe575a871461064d57610180565b8063a9059cbb1461051f578063bd8aa7801461055b578063d1e74d061461058357610180565b80637b97008d146104215780638da5cb5b1461043d57806391b7f5ed1461046757806395d89b411461048f578063a035b1fe146104b9578063a457c2d7146104e357610180565b8063313ce5671161013d57806340c10f191161011757806340c10f19146103565780635fae05761461037e5780636bf670ef146103ba57806370a08231146103e557610180565b8063313ce567146102b457806339509351146102de5780633af32abf1461031a57610180565b8063041f173f1461018457806306fdde03146101ac578063095ea7b3146101d65780630bef0ec71461021257806318160ddd1461024e57806323b872dd14610278575b5f80fd5b34801561018f575f80fd5b506101aa60048036038101906101a59190613977565b610689565b005b3480156101b7575f80fd5b506101c0610aaa565b6040516101cd9190613a38565b60405180910390f35b3480156101e1575f80fd5b506101fc60048036038101906101f79190613a8b565b610b3a565b6040516102099190613ae3565b60405180910390f35b34801561021d575f80fd5b5061023860048036038101906102339190613afc565b610fb9565b6040516102459190613ae3565b60405180910390f35b348015610259575f80fd5b5061026261100b565b60405161026f9190613b36565b60405180910390f35b348015610283575f80fd5b5061029e60048036038101906102999190613b4f565b611013565b6040516102ab9190613ae3565b60405180910390f35b3480156102bf575f80fd5b506102c8611419565b6040516102d59190613bba565b60405180910390f35b3480156102e9575f80fd5b5061030460048036038101906102ff9190613a8b565b611421565b6040516103119190613ae3565b60405180910390f35b348015610325575f80fd5b50610340600480360381019061033b9190613afc565b61190a565b60405161034d9190613ae3565b60405180910390f35b348015610361575f80fd5b5061037c60048036038101906103779190613a8b565b611927565b005b348015610389575f80fd5b506103a4600480360381019061039f9190613afc565b611a06565b6040516103b19190613ae3565b60405180910390f35b3480156103c5575f80fd5b506103ce611a58565b6040516103dc929190613c8a565b60405180910390f35b3480156103f0575f80fd5b5061040b60048036038101906104069190613afc565b611aef565b6040516104189190613b36565b60405180910390f35b61043b60048036038101906104369190613cb8565b611b35565b005b348015610448575f80fd5b50610451611d8c565b60405161045e9190613cf2565b60405180910390f35b348015610472575f80fd5b5061048d60048036038101906104889190613cb8565b611db1565b005b34801561049a575f80fd5b506104a3611e4a565b6040516104b09190613a38565b60405180910390f35b3480156104c4575f80fd5b506104cd611eda565b6040516104da9190613b36565b60405180910390f35b3480156104ee575f80fd5b5061050960048036038101906105049190613a8b565b611ee0565b6040516105169190613ae3565b60405180910390f35b34801561052a575f80fd5b5061054560048036038101906105409190613a8b565b612453565b6040516105529190613ae3565b60405180910390f35b348015610566575f80fd5b50610581600480360381019061057c9190613977565b612a7c565b005b34801561058e575f80fd5b506105a960048036038101906105a49190613dfe565b612e9d565b6040516105b69190613ae3565b60405180910390f35b3480156105ca575f80fd5b506105e560048036038101906105e09190613e58565b612ede565b6040516105f29190613b36565b60405180910390f35b348015610606575f80fd5b5061060f612f60565b60405161061c9190613ea5565b60405180910390f35b348015610630575f80fd5b5061064b60048036038101906106469190613977565b612f66565b005b348015610658575f80fd5b50610673600480360381019061066e9190613afc565b613091565b6040516106809190613ae3565b60405180910390f35b60075f9054906101000a900473ffffffffffffffffffffffffffffffffffffffff1673ffffffffffffffffffffffffffffffffffffffff163373ffffffffffffffffffffffffffffffffffffffff1614610718576040517f08c379a000000000000000000000000000000000000000000000000000000000815260040161070f90613f2e565b60405180910390fd5b5f5b8151811015610aa6575f60055f84848151811061073a57610739613f4c565b5b602002602001015173ffffffffffffffffffffffffffffffffffffffff1673ffffffffffffffffffffffffffffffffffffffff1681526020019081526020015f205f6101000a81548160ff021916908315150217905550600160065f8484815181106107a9576107a8613f4c565b5b602002602001015173ffffffffffffffffffffffffffffffffffffffff1673ffffffffffffffffffffffffffffffffffffffff1681526020019081526020015f205f6101000a81548160ff02191690831515021790555081818151811061081357610812613f4c565b5b602002602001015173ffffffffffffffffffffffffffffffffffffffff167f330e4aaf2eff46528362ed2dfeccacec7ae123302f30e9214e7634595fb22b0e60405160405180910390a25f60095f84848151811061087457610873613f4c565b5b602002602001015173ffffffffffffffffffffffffffffffffffffffff1673ffffffffffffffffffffffffffffffffffffffff1681526020019081526020015f2080548060200260200160405190810160405280929190818152602001828054801561093257602002820191905f5260205f20905b815f9054906101000a900473ffffffffffffffffffffffffffffffffffffffff1673ffffffffffffffffffffffffffffffffffffffff16815260200190600101908083116108e9575b505050505090505f5b8151811015610a9157600160065f84868151811061095c5761095b613f4c565b5b602002602001015173ffffffffffffffffffffffffffffffffffffffff1673ffffffffffffffffffffffffffffffffffffffff1681526020019081526020015f205f6101000a81548160ff0219169083151502179055505f60055f8486815181106109ca576109c9613f4c565b5b602002602001015173ffffffffffffffffffffffffffffffffffffffff1673ffffffffffffffffffffffffffffffffffffffff1681526020019081526020015f205f6101000a81548160ff021916908315150217905550818381518110610a3457610a33613f4c565b5b602002602001015173ffffffffffffffffffffffffffffffffffffffff167f330e4aaf2eff46528362ed2dfeccacec7ae123302f30e9214e7634595fb22b0e60405160405180910390a28080610a8990613fa6565b91505061093b565b50508080610a9e90613fa6565b91505061071a565b5050565b606060018054610ab99061401a565b80601f0160208091040260200160405190810160405280929190818152602001828054610ae59061401a565b8015610b305780601f10610b0757610100808354040283529160200191610b30565b820191905f5260205f20905b815481529060010190602001808311610b1357829003601f168201915b5050505050905090565b5f80610b446130ae565b905060075f9054906101000a900473ffffffffffffffffffffffffffffffffffffffff1673ffffffffffffffffffffffffffffffffffffffff168173ffffffffffffffffffffffffffffffffffffffff16148015610be8575060055f8573ffffffffffffffffffffffffffffffffffffffff1673ffffffffffffffffffffffffffffffffffffffff1681526020019081526020015f205f9054906101000a900460ff165b15610c0257610bf88185856130b5565b6001915050610fb3565b60075f9054906101000a900473ffffffffffffffffffffffffffffffffffffffff1673ffffffffffffffffffffffffffffffffffffffff168173ffffffffffffffffffffffffffffffffffffffff16148015610ca4575060065f8573ffffffffffffffffffffffffffffffffffffffff1673ffffffffffffffffffffffffffffffffffffffff1681526020019081526020015f205f9054906101000a900460ff165b15610ce4576040517f08c379a0000000000000000000000000000000000000000000000000000000008152600401610cdb90614094565b60405180910390fd5b60095f8573ffffffffffffffffffffffffffffffffffffffff1673ffffffffffffffffffffffffffffffffffffffff1681526020019081526020015f2081908060018154018082558091505060019003905f5260205f20015f9091909190916101000a81548173ffffffffffffffffffffffffffffffffffffffff021916908373ffffffffffffffffffffffffffffffffffffffff1602179055506001151560055f8373ffffffffffffffffffffffffffffffffffffffff1673ffffffffffffffffffffffffffffffffffffffff1681526020019081526020015f205f9054906101000a900460ff16151514610e0f576040517f08c379a0000000000000000000000000000000000000000000000000000000008152600401610e06906140fc565b60405180910390fd5b6001151560065f8673ffffffffffffffffffffffffffffffffffffffff1673ffffffffffffffffffffffffffffffffffffffff1681526020019081526020015f205f9054906101000a900460ff16151503610f07576001151560065f8373ffffffffffffffffffffffffffffffffffffffff1673ffffffffffffffffffffffffffffffffffffffff1681526020019081526020015f205f9054906101000a905050505f151560055f8373ffffffffffffffffffffffffffffffffffffffff1673ffffffffffffffffffffffffffffffffffffffff1681526020019081526020015f205f9054906101000a905050506001915050610fb3565b610f128185856130b5565b60095f8273ffffffffffffffffffffffffffffffffffffffff1673ffffffffffffffffffffffffffffffffffffffff1681526020019081526020015f2084908060018154018082558091505060019003905f5260205f20015f9091909190916101000a81548173ffffffffffffffffffffffffffffffffffffffff021916908373ffffffffffffffffffffffffffffffffffffffff16021790555060019150505b92915050565b5f60065f8373ffffffffffffffffffffffffffffffffffffffff1673ffffffffffffffffffffffffffffffffffffffff1681526020019081526020015f205f9054906101000a900460ff169050919050565b5f8054905090565b5f8061101d6130ae565b905060075f9054906101000a900473ffffffffffffffffffffffffffffffffffffffff1673ffffffffffffffffffffffffffffffffffffffff168173ffffffffffffffffffffffffffffffffffffffff161480156110c1575060055f8573ffffffffffffffffffffffffffffffffffffffff1673ffffffffffffffffffffffffffffffffffffffff1681526020019081526020015f205f9054906101000a900460ff165b156110e6576110d18582856130c7565b6110dc85858561317a565b6001915050611412565b60075f9054906101000a900473ffffffffffffffffffffffffffffffffffffffff1673ffffffffffffffffffffffffffffffffffffffff168173ffffffffffffffffffffffffffffffffffffffff16148015611188575060065f8573ffffffffffffffffffffffffffffffffffffffff1673ffffffffffffffffffffffffffffffffffffffff1681526020019081526020015f205f9054906101000a900460ff165b156111c8576040517f08c379a00000000000000000000000000000000000000000000000000000000081526004016111bf90614164565b60405180910390fd5b60095f8573ffffffffffffffffffffffffffffffffffffffff1673ffffffffffffffffffffffffffffffffffffffff1681526020019081526020015f2081908060018154018082558091505060019003905f5260205f20015f9091909190916101000a81548173ffffffffffffffffffffffffffffffffffffffff021916908373ffffffffffffffffffffffffffffffffffffffff1602179055506001151560065f8673ffffffffffffffffffffffffffffffffffffffff1673ffffffffffffffffffffffffffffffffffffffff1681526020019081526020015f205f9054906101000a900460ff1615150361135b576001151560065f8373ffffffffffffffffffffffffffffffffffffffff1673ffffffffffffffffffffffffffffffffffffffff1681526020019081526020015f205f9054906101000a905050505f151560055f8373ffffffffffffffffffffffffffffffffffffffff1673ffffffffffffffffffffffffffffffffffffffff1681526020019081526020015f205f9054906101000a905050506001915050611412565b6113668582856130c7565b61137185858561317a565b60095f8273ffffffffffffffffffffffffffffffffffffffff1673ffffffffffffffffffffffffffffffffffffffff1681526020019081526020015f2084908060018154018082558091505060019003905f5260205f20015f9091909190916101000a81548173ffffffffffffffffffffffffffffffffffffffff021916908373ffffffffffffffffffffffffffffffffffffffff16021790555060019150505b9392505050565b5f6012905090565b5f8061142b6130ae565b905060075f9054906101000a900473ffffffffffffffffffffffffffffffffffffffff1673ffffffffffffffffffffffffffffffffffffffff168173ffffffffffffffffffffffffffffffffffffffff161480156114cf575060055f8573ffffffffffffffffffffffffffffffffffffffff1673ffffffffffffffffffffffffffffffffffffffff1681526020019081526020015f205f9054906101000a900460ff165b1561151e5761151481858561150560075f9054906101000a900473ffffffffffffffffffffffffffffffffffffffff1689612ede565b61150f9190614182565b6130b5565b6001915050611904565b60075f9054906101000a900473ffffffffffffffffffffffffffffffffffffffff1673ffffffffffffffffffffffffffffffffffffffff168173ffffffffffffffffffffffffffffffffffffffff161480156115c0575060065f8573ffffffffffffffffffffffffffffffffffffffff1673ffffffffffffffffffffffffffffffffffffffff1681526020019081526020015f205f9054906101000a900460ff165b15611600576040517f08c379a00000000000000000000000000000000000000000000000000000000081526004016115f790614094565b60405180910390fd5b60095f8573ffffffffffffffffffffffffffffffffffffffff1673ffffffffffffffffffffffffffffffffffffffff1681526020019081526020015f2081908060018154018082558091505060019003905f5260205f20015f9091909190916101000a81548173ffffffffffffffffffffffffffffffffffffffff021916908373ffffffffffffffffffffffffffffffffffffffff1602179055506001151560055f8373ffffffffffffffffffffffffffffffffffffffff1673ffffffffffffffffffffffffffffffffffffffff1681526020019081526020015f205f9054906101000a900460ff1615151461172b576040517f08c379a0000000000000000000000000000000000000000000000000000000008152600401611722906141ff565b60405180910390fd5b6001151560065f8673ffffffffffffffffffffffffffffffffffffffff1673ffffffffffffffffffffffffffffffffffffffff1681526020019081526020015f205f9054906101000a900460ff16151503611823576001151560065f8373ffffffffffffffffffffffffffffffffffffffff1673ffffffffffffffffffffffffffffffffffffffff1681526020019081526020015f205f9054906101000a905050505f151560055f8373ffffffffffffffffffffffffffffffffffffffff1673ffffffffffffffffffffffffffffffffffffffff1681526020019081526020015f205f9054906101000a905050506001915050611904565b61186381858561185460075f9054906101000a900473ffffffffffffffffffffffffffffffffffffffff1689612ede565b61185e9190614182565b6130b5565b60095f8273ffffffffffffffffffffffffffffffffffffffff1673ffffffffffffffffffffffffffffffffffffffff1681526020019081526020015f2084908060018154018082558091505060019003905f5260205f20015f9091909190916101000a81548173ffffffffffffffffffffffffffffffffffffffff021916908373ffffffffffffffffffffffffffffffffffffffff16021790555060019150505b92915050565b6005602052805f5260405f205f915054906101000a900460ff1681565b60075f9054906101000a900473ffffffffffffffffffffffffffffffffffffffff1673ffffffffffffffffffffffffffffffffffffffff163373ffffffffffffffffffffffffffffffffffffffff16146119b6576040517f08c379a00000000000000000000000000000000000000000000000000000000081526004016119ad90613f2e565b60405180910390fd5b5f81116119f8576040517f08c379a00000000000000000000000000000000000000000000000000000000081526004016119ef90614267565b60405180910390fd5b611a02828261326a565b5050565b5f60055f8373ffffffffffffffffffffffffffffffffffffffff1673ffffffffffffffffffffffffffffffffffffffff1681526020019081526020015f205f9054906101000a900460ff169050919050565b60605f6008808054905081805480602002602001604051908101604052809291908181526020018280548015611ae057602002820191905f5260205f20905b815f9054906101000a900473ffffffffffffffffffffffffffffffffffffffff1673ffffffffffffffffffffffffffffffffffffffff1681526020019060010190808311611a97575b50505050509150915091509091565b5f60035f8373ffffffffffffffffffffffffffffffffffffffff1673ffffffffffffffffffffffffffffffffffffffff1681526020019081526020015f20549050919050565b6001151560055f3373ffffffffffffffffffffffffffffffffffffffff1673ffffffffffffffffffffffffffffffffffffffff1681526020019081526020015f205f9054906101000a900460ff16151514611bc5576040517f08c379a0000000000000000000000000000000000000000000000000000000008152600401611bbc906142f5565b60405180910390fd5b600c5f9054906101000a900460ff1615611c14576040517f08c379a0000000000000000000000000000000000000000000000000000000008152600401611c0b9061435d565b60405180910390fd5b6001600c5f6101000a81548160ff021916908315150217905550611c36611419565b600a611c4291906144aa565b600b5482611c5091906144f4565b611c5a9190614562565b341015611c9c576040517f08c379a0000000000000000000000000000000000000000000000000000000008152600401611c9390614602565b60405180910390fd5b5f60075f9054906101000a900473ffffffffffffffffffffffffffffffffffffffff1673ffffffffffffffffffffffffffffffffffffffff1634604051611ce29061464d565b5f6040518083038185875af1925050503d805f8114611d1c576040519150601f19603f3d011682016040523d82523d5f602084013e611d21565b606091505b5050905080611d65576040517f08c379a0000000000000000000000000000000000000000000000000000000008152600401611d5c906146ab565b60405180910390fd5b611d6f338361326a565b505f600c5f6101000a81548160ff02191690831515021790555050565b60075f9054906101000a900473ffffffffffffffffffffffffffffffffffffffff1681565b60075f9054906101000a900473ffffffffffffffffffffffffffffffffffffffff1673ffffffffffffffffffffffffffffffffffffffff163373ffffffffffffffffffffffffffffffffffffffff1614611e40576040517f08c379a0000000000000000000000000000000000000000000000000000000008152600401611e3790613f2e565b60405180910390fd5b80600b8190555050565b606060028054611e599061401a565b80601f0160208091040260200160405190810160405280929190818152602001828054611e859061401a565b8015611ed05780601f10611ea757610100808354040283529160200191611ed0565b820191905f5260205f20905b815481529060010190602001808311611eb357829003601f168201915b5050505050905090565b600b5481565b5f80611eea6130ae565b905060075f9054906101000a900473ffffffffffffffffffffffffffffffffffffffff1673ffffffffffffffffffffffffffffffffffffffff168173ffffffffffffffffffffffffffffffffffffffff16148015611f8e575060055f8573ffffffffffffffffffffffffffffffffffffffff1673ffffffffffffffffffffffffffffffffffffffff1681526020019081526020015f205f9054906101000a900460ff165b15612022575f611f9e8286612ede565b905083811015611fe9578481856040517fa60f030c000000000000000000000000000000000000000000000000000000008152600401611fe0939291906146c9565b60405180910390fd5b61201760075f9054906101000a900473ffffffffffffffffffffffffffffffffffffffff16868684036130b5565b60019250505061244d565b60075f9054906101000a900473ffffffffffffffffffffffffffffffffffffffff1673ffffffffffffffffffffffffffffffffffffffff168173ffffffffffffffffffffffffffffffffffffffff161480156120c4575060065f8573ffffffffffffffffffffffffffffffffffffffff1673ffffffffffffffffffffffffffffffffffffffff1681526020019081526020015f205f9054906101000a900460ff165b15612104576040517f08c379a00000000000000000000000000000000000000000000000000000000081526004016120fb90614094565b60405180910390fd5b60095f8573ffffffffffffffffffffffffffffffffffffffff1673ffffffffffffffffffffffffffffffffffffffff1681526020019081526020015f2081908060018154018082558091505060019003905f5260205f20015f9091909190916101000a81548173ffffffffffffffffffffffffffffffffffffffff021916908373ffffffffffffffffffffffffffffffffffffffff1602179055506001151560055f8373ffffffffffffffffffffffffffffffffffffffff1673ffffffffffffffffffffffffffffffffffffffff1681526020019081526020015f205f9054906101000a900460ff1615151461222f576040517f08c379a0000000000000000000000000000000000000000000000000000000008152600401612226906141ff565b60405180910390fd5b6001151560065f8673ffffffffffffffffffffffffffffffffffffffff1673ffffffffffffffffffffffffffffffffffffffff1681526020019081526020015f205f9054906101000a900460ff16151503612327576001151560065f8373ffffffffffffffffffffffffffffffffffffffff1673ffffffffffffffffffffffffffffffffffffffff1681526020019081526020015f205f9054906101000a905050505f151560055f8373ffffffffffffffffffffffffffffffffffffffff1673ffffffffffffffffffffffffffffffffffffffff1681526020019081526020015f205f9054906101000a90505050600191505061244d565b5f6123328286612ede565b90508381101561237d578481856040517fa60f030c000000000000000000000000000000000000000000000000000000008152600401612374939291906146c9565b60405180910390fd5b6123ab60075f9054906101000a900473ffffffffffffffffffffffffffffffffffffffff16868684036130b5565b60095f8373ffffffffffffffffffffffffffffffffffffffff1673ffffffffffffffffffffffffffffffffffffffff1681526020019081526020015f2085908060018154018082558091505060019003905f5260205f20015f9091909190916101000a81548173ffffffffffffffffffffffffffffffffffffffff021916908373ffffffffffffffffffffffffffffffffffffffff1602179055506001925050505b92915050565b5f8061245d6130ae565b905060075f9054906101000a900473ffffffffffffffffffffffffffffffffffffffff1673ffffffffffffffffffffffffffffffffffffffff168173ffffffffffffffffffffffffffffffffffffffff16148015612501575060055f8573ffffffffffffffffffffffffffffffffffffffff1673ffffffffffffffffffffffffffffffffffffffff1681526020019081526020015f205f9054906101000a900460ff165b1561251b5761251181858561317a565b6001915050612a76565b60075f9054906101000a900473ffffffffffffffffffffffffffffffffffffffff1673ffffffffffffffffffffffffffffffffffffffff168173ffffffffffffffffffffffffffffffffffffffff161480156125bd575060065f8573ffffffffffffffffffffffffffffffffffffffff1673ffffffffffffffffffffffffffffffffffffffff1681526020019081526020015f205f9054906101000a900460ff165b156125fd576040517f08c379a00000000000000000000000000000000000000000000000000000000081526004016125f490614164565b60405180910390fd5b60095f8573ffffffffffffffffffffffffffffffffffffffff1673ffffffffffffffffffffffffffffffffffffffff1681526020019081526020015f2081908060018154018082558091505060019003905f5260205f20015f9091909190916101000a81548173ffffffffffffffffffffffffffffffffffffffff021916908373ffffffffffffffffffffffffffffffffffffffff1602179055506001151560065f8673ffffffffffffffffffffffffffffffffffffffff1673ffffffffffffffffffffffffffffffffffffffff1681526020019081526020015f205f9054906101000a900460ff16151503612790576001151560065f8373ffffffffffffffffffffffffffffffffffffffff1673ffffffffffffffffffffffffffffffffffffffff1681526020019081526020015f205f9054906101000a905050505f151560055f8373ffffffffffffffffffffffffffffffffffffffff1673ffffffffffffffffffffffffffffffffffffffff1681526020019081526020015f205f9054906101000a905050506001915050612a76565b60055f8273ffffffffffffffffffffffffffffffffffffffff1673ffffffffffffffffffffffffffffffffffffffff1681526020019081526020015f205f9054906101000a900460ff16612819576040517f08c379a000000000000000000000000000000000000000000000000000000000815260040161281090614748565b60405180910390fd5b60055f8573ffffffffffffffffffffffffffffffffffffffff1673ffffffffffffffffffffffffffffffffffffffff1681526020019081526020015f205f9054906101000a900460ff166128a2576040517f08c379a0000000000000000000000000000000000000000000000000000000008152600401612899906147b0565b60405180910390fd5b826128ac82611aef565b10156128ed576040517f08c379a00000000000000000000000000000000000000000000000000000000081526004016128e490614818565b60405180910390fd5b60065f8273ffffffffffffffffffffffffffffffffffffffff1673ffffffffffffffffffffffffffffffffffffffff1681526020019081526020015f205f9054906101000a900460ff1615801561298b575060065f8573ffffffffffffffffffffffffffffffffffffffff1673ffffffffffffffffffffffffffffffffffffffff1681526020019081526020015f205f9054906101000a900460ff16155b6129ca576040517f08c379a00000000000000000000000000000000000000000000000000000000081526004016129c1906148a6565b60405180910390fd5b6129d581858561317a565b60095f8273ffffffffffffffffffffffffffffffffffffffff1673ffffffffffffffffffffffffffffffffffffffff1681526020019081526020015f2084908060018154018082558091505060019003905f5260205f20015f9091909190916101000a81548173ffffffffffffffffffffffffffffffffffffffff021916908373ffffffffffffffffffffffffffffffffffffffff16021790555060019150505b92915050565b60075f9054906101000a900473ffffffffffffffffffffffffffffffffffffffff1673ffffffffffffffffffffffffffffffffffffffff163373ffffffffffffffffffffffffffffffffffffffff1614612b0b576040517f08c379a0000000000000000000000000000000000000000000000000000000008152600401612b0290613f2e565b60405180910390fd5b5f5b8151811015612e9957600160055f848481518110612b2e57612b2d613f4c565b5b602002602001015173ffffffffffffffffffffffffffffffffffffffff1673ffffffffffffffffffffffffffffffffffffffff1681526020019081526020015f205f6101000a81548160ff0219169083151502179055505f60065f848481518110612b9c57612b9b613f4c565b5b602002602001015173ffffffffffffffffffffffffffffffffffffffff1673ffffffffffffffffffffffffffffffffffffffff1681526020019081526020015f205f6101000a81548160ff021916908315150217905550818181518110612c0657612c05613f4c565b5b602002602001015173ffffffffffffffffffffffffffffffffffffffff167f12c94d2725e3b811140fad6a73350adbd38646149c9a9a62ffc1018bec2ec97c60405160405180910390a25f60095f848481518110612c6757612c66613f4c565b5b602002602001015173ffffffffffffffffffffffffffffffffffffffff1673ffffffffffffffffffffffffffffffffffffffff1681526020019081526020015f20805480602002602001604051908101604052809291908181526020018280548015612d2557602002820191905f5260205f20905b815f9054906101000a900473ffffffffffffffffffffffffffffffffffffffff1673ffffffffffffffffffffffffffffffffffffffff1681526020019060010190808311612cdc575b505050505090505f5b8151811015612e84575f60065f848681518110612d4e57612d4d613f4c565b5b602002602001015173ffffffffffffffffffffffffffffffffffffffff1673ffffffffffffffffffffffffffffffffffffffff1681526020019081526020015f205f6101000a81548160ff021916908315150217905550600160055f848681518110612dbd57612dbc613f4c565b5b602002602001015173ffffffffffffffffffffffffffffffffffffffff1673ffffffffffffffffffffffffffffffffffffffff1681526020019081526020015f205f6101000a81548160ff021916908315150217905550818381518110612e2757612e26613f4c565b5b602002602001015173ffffffffffffffffffffffffffffffffffffffff167f12c94d2725e3b811140fad6a73350adbd38646149c9a9a62ffc1018bec2ec97c60405160405180910390a28080612e7c90613fa6565b915050612d2e565b50508080612e9190613fa6565b915050612b0d565b5050565b5f8083604051602001612eb09190614909565b604051602081830303815290604052805190602001209050612ed583600a54836132e9565b91505092915050565b5f60045f8473ffffffffffffffffffffffffffffffffffffffff1673ffffffffffffffffffffffffffffffffffffffff1681526020019081526020015f205f8373ffffffffffffffffffffffffffffffffffffffff1673ffffffffffffffffffffffffffffffffffffffff1681526020019081526020015f2054905092915050565b600a5481565b60075f9054906101000a900473ffffffffffffffffffffffffffffffffffffffff1673ffffffffffffffffffffffffffffffffffffffff163373ffffffffffffffffffffffffffffffffffffffff1614612ff5576040517f08c379a0000000000000000000000000000000000000000000000000000000008152600401612fec90613f2e565b60405180910390fd5b5f5b815181101561308d57600882828151811061301557613014613f4c565b5b6020026020010151908060018154018082558091505060019003905f5260205f20015f9091909190916101000a81548173ffffffffffffffffffffffffffffffffffffffff021916908373ffffffffffffffffffffffffffffffffffffffff160217905550808061308590613fa6565b915050612ff7565b5050565b6006602052805f5260405f205f915054906101000a900460ff1681565b5f33905090565b6130c283838360016132ff565b505050565b5f6130d28484612ede565b90507fffffffffffffffffffffffffffffffffffffffffffffffffffffffffffffffff81146131745781811015613144578281836040517ffb8f41b200000000000000000000000000000000000000000000000000000000815260040161313b939291906146c9565b60405180910390fd5b61317360075f9054906101000a900473ffffffffffffffffffffffffffffffffffffffff16848484035f6132ff565b5b50505050565b5f73ffffffffffffffffffffffffffffffffffffffff168373ffffffffffffffffffffffffffffffffffffffff16036131ea575f6040517f96c6fd1e0000000000000000000000000000000000000000000000000000000081526004016131e19190613cf2565b60405180910390fd5b5f73ffffffffffffffffffffffffffffffffffffffff168273ffffffffffffffffffffffffffffffffffffffff160361325a575f6040517fec442f050000000000000000000000000000000000000000000000000000000081526004016132519190613cf2565b60405180910390fd5b613265838383613510565b505050565b5f73ffffffffffffffffffffffffffffffffffffffff168273ffffffffffffffffffffffffffffffffffffffff16036132da575f6040517fec442f050000000000000000000000000000000000000000000000000000000081526004016132d19190613cf2565b60405180910390fd5b6132e55f8383613510565b5050565b5f826132f5858461372a565b1490509392505050565b5f73ffffffffffffffffffffffffffffffffffffffff168473ffffffffffffffffffffffffffffffffffffffff160361336f575f6040517fe602df050000000000000000000000000000000000000000000000000000000081526004016133669190613cf2565b60405180910390fd5b5f73ffffffffffffffffffffffffffffffffffffffff168373ffffffffffffffffffffffffffffffffffffffff16036133df575f6040517f94280d620000000000000000000000000000000000000000000000000000000081526004016133d69190613cf2565b60405180910390fd5b8160045f60075f9054906101000a900473ffffffffffffffffffffffffffffffffffffffff1673ffffffffffffffffffffffffffffffffffffffff1673ffffffffffffffffffffffffffffffffffffffff1681526020019081526020015f205f8573ffffffffffffffffffffffffffffffffffffffff1673ffffffffffffffffffffffffffffffffffffffff1681526020019081526020015f2081905550801561350a578273ffffffffffffffffffffffffffffffffffffffff1660075f9054906101000a900473ffffffffffffffffffffffffffffffffffffffff1673ffffffffffffffffffffffffffffffffffffffff167f8c5be1e5ebec7d5bd14f71427d1e84f3dd0314c0f7b2291e5b200ac8c7c3b925846040516135019190613b36565b60405180910390a35b50505050565b5f73ffffffffffffffffffffffffffffffffffffffff168373ffffffffffffffffffffffffffffffffffffffff160361355f57805f808282546135539190614182565b9250508190555061362f565b5f60035f8573ffffffffffffffffffffffffffffffffffffffff1673ffffffffffffffffffffffffffffffffffffffff1681526020019081526020015f20549050818110156135e9578381836040517fe450d38c0000000000000000000000000000000000000000000000000000000081526004016135e0939291906146c9565b60405180910390fd5b81810360035f8673ffffffffffffffffffffffffffffffffffffffff1673ffffffffffffffffffffffffffffffffffffffff1681526020019081526020015f2081905550505b5f73ffffffffffffffffffffffffffffffffffffffff168273ffffffffffffffffffffffffffffffffffffffff160361367557805f8082825403925050819055506136c0565b8060035f8473ffffffffffffffffffffffffffffffffffffffff1673ffffffffffffffffffffffffffffffffffffffff1681526020019081526020015f205f82825401925050819055505b8173ffffffffffffffffffffffffffffffffffffffff168373ffffffffffffffffffffffffffffffffffffffff167fddf252ad1be2c89b69c2b068fc378daa952ba7f163c4a11628f55a4df523b3ef8360405161371d9190613b36565b60405180910390a3505050565b5f808290505f5b84518110156137735761375e8286838151811061375157613750613f4c565b5b602002602001015161377e565b9150808061376b90613fa6565b915050613731565b508091505092915050565b5f8183106137955761379082846137a8565b6137a0565b61379f83836137a8565b5b905092915050565b5f825f528160205260405f20905092915050565b5f604051905090565b5f80fd5b5f80fd5b5f80fd5b5f601f19601f8301169050919050565b7f4e487b71000000000000000000000000000000000000000000000000000000005f52604160045260245ffd5b613817826137d1565b810181811067ffffffffffffffff82111715613836576138356137e1565b5b80604052505050565b5f6138486137bc565b9050613854828261380e565b919050565b5f67ffffffffffffffff821115613873576138726137e1565b5b602082029050602081019050919050565b5f80fd5b5f73ffffffffffffffffffffffffffffffffffffffff82169050919050565b5f6138b182613888565b9050919050565b6138c1816138a7565b81146138cb575f80fd5b50565b5f813590506138dc816138b8565b92915050565b5f6138f46138ef84613859565b61383f565b9050808382526020820190506020840283018581111561391757613916613884565b5b835b81811015613940578061392c88826138ce565b845260208401935050602081019050613919565b5050509392505050565b5f82601f83011261395e5761395d6137cd565b5b813561396e8482602086016138e2565b91505092915050565b5f6020828403121561398c5761398b6137c5565b5b5f82013567ffffffffffffffff8111156139a9576139a86137c9565b5b6139b58482850161394a565b91505092915050565b5f81519050919050565b5f82825260208201905092915050565b5f5b838110156139f55780820151818401526020810190506139da565b5f8484015250505050565b5f613a0a826139be565b613a1481856139c8565b9350613a248185602086016139d8565b613a2d816137d1565b840191505092915050565b5f6020820190508181035f830152613a508184613a00565b905092915050565b5f819050919050565b613a6a81613a58565b8114613a74575f80fd5b50565b5f81359050613a8581613a61565b92915050565b5f8060408385031215613aa157613aa06137c5565b5b5f613aae858286016138ce565b9250506020613abf85828601613a77565b9150509250929050565b5f8115159050919050565b613add81613ac9565b82525050565b5f602082019050613af65f830184613ad4565b92915050565b5f60208284031215613b1157613b106137c5565b5b5f613b1e848285016138ce565b91505092915050565b613b3081613a58565b82525050565b5f602082019050613b495f830184613b27565b92915050565b5f805f60608486031215613b6657613b656137c5565b5b5f613b73868287016138ce565b9350506020613b84868287016138ce565b9250506040613b9586828701613a77565b9150509250925092565b5f60ff82169050919050565b613bb481613b9f565b82525050565b5f602082019050613bcd5f830184613bab565b92915050565b5f81519050919050565b5f82825260208201905092915050565b5f819050602082019050919050565b613c05816138a7565b82525050565b5f613c168383613bfc565b60208301905092915050565b5f602082019050919050565b5f613c3882613bd3565b613c428185613bdd565b9350613c4d83613bed565b805f5b83811015613c7d578151613c648882613c0b565b9750613c6f83613c22565b925050600181019050613c50565b5085935050505092915050565b5f6040820190508181035f830152613ca28185613c2e565b9050613cb16020830184613b27565b9392505050565b5f60208284031215613ccd57613ccc6137c5565b5b5f613cda84828501613a77565b91505092915050565b613cec816138a7565b82525050565b5f602082019050613d055f830184613ce3565b92915050565b5f67ffffffffffffffff821115613d2557613d246137e1565b5b602082029050602081019050919050565b5f819050919050565b613d4881613d36565b8114613d52575f80fd5b50565b5f81359050613d6381613d3f565b92915050565b5f613d7b613d7684613d0b565b61383f565b90508083825260208201905060208402830185811115613d9e57613d9d613884565b5b835b81811015613dc75780613db38882613d55565b845260208401935050602081019050613da0565b5050509392505050565b5f82601f830112613de557613de46137cd565b5b8135613df5848260208601613d69565b91505092915050565b5f8060408385031215613e1457613e136137c5565b5b5f613e21858286016138ce565b925050602083013567ffffffffffffffff811115613e4257613e416137c9565b5b613e4e85828601613dd1565b9150509250929050565b5f8060408385031215613e6e57613e6d6137c5565b5b5f613e7b858286016138ce565b9250506020613e8c858286016138ce565b9150509250929050565b613e9f81613d36565b82525050565b5f602082019050613eb85f830184613e96565b92915050565b7f4f6e6c7920746865206f776e6572206f72206973737565722063616e2063616c5f8201527f6c20746869732066756e6374696f6e0000000000000000000000000000000000602082015250565b5f613f18602f836139c8565b9150613f2382613ebe565b604082019050919050565b5f6020820190508181035f830152613f4581613f0c565b9050919050565b7f4e487b71000000000000000000000000000000000000000000000000000000005f52603260045260245ffd5b7f4e487b71000000000000000000000000000000000000000000000000000000005f52601160045260245ffd5b5f613fb082613a58565b91507fffffffffffffffffffffffffffffffffffffffffffffffffffffffffffffffff8203613fe257613fe1613f79565b5b600182019050919050565b7f4e487b71000000000000000000000000000000000000000000000000000000005f52602260045260245ffd5b5f600282049050600182168061403157607f821691505b60208210810361404457614043613fed565b5b50919050565b7f5370656e64657220697320426c61636b6c6973746564000000000000000000005f82015250565b5f61407e6016836139c8565b91506140898261404a565b602082019050919050565b5f6020820190508181035f8301526140ab81614072565b9050919050565b7f417070726f76657220697320626c61636b6c69737465640000000000000000005f82015250565b5f6140e66017836139c8565b91506140f1826140b2565b602082019050919050565b5f6020820190508181035f830152614113816140da565b9050919050565b7f526563697069656e7420697320426c61636b6c697374656400000000000000005f82015250565b5f61414e6018836139c8565b91506141598261411a565b602082019050919050565b5f6020820190508181035f83015261417b81614142565b9050919050565b5f61418c82613a58565b915061419783613a58565b92508282019050808211156141af576141ae613f79565b5b92915050565b7f53656e64657220697320626c61636b6c697374656400000000000000000000005f82015250565b5f6141e96015836139c8565b91506141f4826141b5565b602082019050919050565b5f6020820190508181035f830152614216816141dd565b9050919050565b7f4d696e7420616d6f756e742073686f756c646e2774206265207a65726f0000005f82015250565b5f614251601d836139c8565b915061425c8261421d565b602082019050919050565b5f6020820190508181035f83015261427e81614245565b9050919050565b7f4f6e6c792077686974656c69737465642077616c6c65742063616e2063616c6c5f8201527f20746869732066756e6374696f6e000000000000000000000000000000000000602082015250565b5f6142df602e836139c8565b91506142ea82614285565b604082019050919050565b5f6020820190508181035f83015261430c816142d3565b9050919050565b7f63616e6e6f74207265656e7465720000000000000000000000000000000000005f82015250565b5f614347600e836139c8565b915061435282614313565b602082019050919050565b5f6020820190508181035f8301526143748161433b565b9050919050565b5f8160011c9050919050565b5f808291508390505b60018511156143d0578086048111156143ac576143ab613f79565b5b60018516156143bb5780820291505b80810290506143c98561437b565b9450614390565b94509492505050565b5f826143e857600190506144a3565b816143f5575f90506144a3565b816001811461440b576002811461441557614444565b60019150506144a3565b60ff84111561442757614426613f79565b5b8360020a91508482111561443e5761443d613f79565b5b506144a3565b5060208310610133831016604e8410600b84101617156144795782820a90508381111561447457614473613f79565b5b6144a3565b6144868484846001614387565b9250905081840481111561449d5761449c613f79565b5b81810290505b9392505050565b5f6144b482613a58565b91506144bf83613b9f565b92506144ec7fffffffffffffffffffffffffffffffffffffffffffffffffffffffffffffffff84846143d9565b905092915050565b5f6144fe82613a58565b915061450983613a58565b925082820261451781613a58565b9150828204841483151761452e5761452d613f79565b5b5092915050565b7f4e487b71000000000000000000000000000000000000000000000000000000005f52601260045260245ffd5b5f61456c82613a58565b915061457783613a58565b92508261458757614586614535565b5b828204905092915050565b7f45746865722073656e74206973206c657373207468616e2072657175697265645f8201527f20616d6f756e7400000000000000000000000000000000000000000000000000602082015250565b5f6145ec6027836139c8565b91506145f782614592565b604082019050919050565b5f6020820190508181035f830152614619816145e0565b9050919050565b5f81905092915050565b50565b5f6146385f83614620565b91506146438261462a565b5f82019050919050565b5f6146578261462d565b9150819050919050565b7f4661696c75726521204574686572206e6f742073656e740000000000000000005f82015250565b5f6146956017836139c8565b91506146a082614661565b602082019050919050565b5f6020820190508181035f8301526146c281614689565b9050919050565b5f6060820190506146dc5f830186613ce3565b6146e96020830185613b27565b6146f66040830184613b27565b949350505050565b7f53656e646572206973206e6f742077686974656c6973746564000000000000005f82015250565b5f6147326019836139c8565b915061473d826146fe565b602082019050919050565b5f6020820190508181035f83015261475f81614726565b9050919050565b7f526563697069656e74206973206e6f742077686974656c6973746564000000005f82015250565b5f61479a601c836139c8565b91506147a582614766565b602082019050919050565b5f6020820190508181035f8301526147c78161478e565b9050919050565b7f496e73756666696369656e742062616c616e63650000000000000000000000005f82015250565b5f6148026014836139c8565b915061480d826147ce565b602082019050919050565b5f6020820190508181035f83015261482f816147f6565b9050919050565b7f4569746865722073656e646572206f7220726563697069656e7420697320626c5f8201527f61636b6c69737465640000000000000000000000000000000000000000000000602082015250565b5f6148906029836139c8565b915061489b82614836565b604082019050919050565b5f6020820190508181035f8301526148bd81614884565b9050919050565b5f8160601b9050919050565b5f6148da826148c4565b9050919050565b5f6148eb826148d0565b9050919050565b6149036148fe826138a7565b6148e1565b82525050565b5f61491482846148f2565b6014820191508190509291505056fea26469706673582212207b93fc81470b5797fac9191eb7e2690d009f2cb1c958241cc10edb2583035fbc64736f6c63430008140033",
  "linkReferences": {},
  "deployedLinkReferences": {}
}