{
  "_format": "hh-sol-artifact-1",
  "contractName": "XALTS",
  "sourceName": "contracts/XALTS.sol",
  "abi": [
    {
      "inputs": [
        {
          "internalType": "string",
          "name": "name_",
          "type": "string"
        },
        {
          "internalType": "string",
          "name": "symbol_",
          "type": "string"
        },
        {
          "internalType": "uint256",
          "name": "_price",
          "type": "uint256"
        },
        {
          "internalType": "bytes32",
          "name": "_root",
          "type": "bytes32"
        },
        {
          "internalType": "address[]",
          "name": "_wallet",
          "type": "address[]"
        }
      ],
      "stateMutability": "nonpayable",
      "type": "constructor"
    },
    {
      "inputs": [
        {
          "internalType": "address",
          "name": "spender",
          "type": "address"
        },
        {
          "internalType": "uint256",
          "name": "currentAllowance",
          "type": "uint256"
        },
        {
          "internalType": "uint256",
          "name": "requestedDecrease",
          "type": "uint256"
        }
      ],
      "name": "ERC20FailedDecreaseAllowance",
      "type": "error"
    },
    {
      "inputs": [
        {
          "internalType": "address",
          "name": "spender",
          "type": "address"
        },
        {
          "internalType": "uint256",
          "name": "allowance",
          "type": "uint256"
        },
        {
          "internalType": "uint256",
          "name": "needed",
          "type": "uint256"
        }
      ],
      "name": "ERC20InsufficientAllowance",
      "type": "error"
    },
    {
      "inputs": [
        {
          "internalType": "address",
          "name": "sender",
          "type": "address"
        },
        {
          "internalType": "uint256",
          "name": "balance",
          "type": "uint256"
        },
        {
          "internalType": "uint256",
          "name": "needed",
          "type": "uint256"
        }
      ],
      "name": "ERC20InsufficientBalance",
      "type": "error"
    },
    {
      "inputs": [
        {
          "internalType": "address",
          "name": "approver",
          "type": "address"
        }
      ],
      "name": "ERC20InvalidApprover",
      "type": "error"
    },
    {
      "inputs": [
        {
          "internalType": "address",
          "name": "receiver",
          "type": "address"
        }
      ],
      "name": "ERC20InvalidReceiver",
      "type": "error"
    },
    {
      "inputs": [
        {
          "internalType": "address",
          "name": "sender",
          "type": "address"
        }
      ],
      "name": "ERC20InvalidSender",
      "type": "error"
    },
    {
      "inputs": [
        {
          "internalType": "address",
          "name": "spender",
          "type": "address"
        }
      ],
      "name": "ERC20InvalidSpender",
      "type": "error"
    },
    {
      "anonymous": false,
      "inputs": [
        {
          "indexed": true,
          "internalType": "address",
          "name": "owner",
          "type": "address"
        },
        {
          "indexed": true,
          "internalType": "address",
          "name": "spender",
          "type": "address"
        },
        {
          "indexed": false,
          "internalType": "uint256",
          "name": "value",
          "type": "uint256"
        }
      ],
      "name": "Approval",
      "type": "event"
    },
    {
      "anonymous": false,
      "inputs": [
        {
          "indexed": true,
          "internalType": "address",
          "name": "from",
          "type": "address"
        },
        {
          "indexed": true,
          "internalType": "address",
          "name": "to",
          "type": "address"
        },
        {
          "indexed": false,
          "internalType": "uint256",
          "name": "value",
          "type": "uint256"
        }
      ],
      "name": "Transfer",
      "type": "event"
    },
    {
      "anonymous": false,
      "inputs": [
        {
          "indexed": true,
          "internalType": "address",
          "name": "wallet",
          "type": "address"
        }
      ],
      "name": "WalletBlacklisted",
      "type": "event"
    },
    {
      "anonymous": false,
      "inputs": [
        {
          "indexed": true,
          "internalType": "address",
          "name": "wallet",
          "type": "address"
        }
      ],
      "name": "WalletWhitelisted",
      "type": "event"
    },
    {
      "inputs": [
        {
          "internalType": "address[]",
          "name": "_wallet",
          "type": "address[]"
        }
      ],
      "name": "addWalletAddress",
      "outputs": [],
      "stateMutability": "nonpayable",
      "type": "function"
    },
    {
      "inputs": [
        {
          "internalType": "address",
          "name": "_owner",
          "type": "address"
        },
        {
          "internalType": "address",
          "name": "spender",
          "type": "address"
        }
      ],
      "name": "allowance",
      "outputs": [
        {
          "internalType": "uint256",
          "name": "",
          "type": "uint256"
        }
      ],
      "stateMutability": "view",
      "type": "function"
    },
    {
      "inputs": [
        {
          "internalType": "address",
          "name": "spender",
          "type": "address"
        },
        {
          "internalType": "uint256",
          "name": "value",
          "type": "uint256"
        }
      ],
      "name": "approve",
      "outputs": [
        {
          "internalType": "bool",
          "name": "",
          "type": "bool"
        }
      ],
      "stateMutability": "nonpayable",
      "type": "function"
    },
    {
      "inputs": [
        {
          "internalType": "address",
          "name": "account",
          "type": "address"
        }
      ],
      "name": "balanceOf",
      "outputs": [
        {
          "internalType": "uint256",
          "name": "",
          "type": "uint256"
        }
      ],
      "stateMutability": "view",
      "type": "function"
    },
    {
      "inputs": [
        {
          "internalType": "address[]",
          "name": "_wallet",
          "type": "address[]"
        }
      ],
      "name": "blacklist",
      "outputs": [],
      "stateMutability": "nonpayable",
      "type": "function"
    },
    {
      "inputs": [],
      "name": "decimals",
      "outputs": [
        {
          "internalType": "uint8",
          "name": "",
          "type": "uint8"
        }
      ],
      "stateMutability": "view",
      "type": "function"
    },
    {
      "inputs": [
        {
          "internalType": "address",
          "name": "spender",
          "type": "address"
        },
        {
          "internalType": "uint256",
          "name": "requestedDecrease",
          "type": "uint256"
        }
      ],
      "name": "decreaseAllowance",
      "outputs": [
        {
          "internalType": "bool",
          "name": "",
          "type": "bool"
        }
      ],
      "stateMutability": "nonpayable",
      "type": "function"
    },
    {
      "inputs": [
        {
          "internalType": "address",
          "name": "spender",
          "type": "address"
        },
        {
          "internalType": "uint256",
          "name": "addedValue",
          "type": "uint256"
        }
      ],
      "name": "increaseAllowance",
      "outputs": [
        {
          "internalType": "bool",
          "name": "",
          "type": "bool"
        }
      ],
      "stateMutability": "nonpayable",
      "type": "function"
    },
    {
      "inputs": [
        {
          "internalType": "address",
          "name": "",
          "type": "address"
        }
      ],
      "name": "isBlacklisted",
      "outputs": [
        {
          "internalType": "bool",
          "name": "",
          "type": "bool"
        }
      ],
      "stateMutability": "view",
      "type": "function"
    },
    {
      "inputs": [
        {
          "internalType": "address",
          "name": "wallet",
          "type": "address"
        }
      ],
      "name": "isBlacklistedAddress",
      "outputs": [
        {
          "internalType": "bool",
          "name": "",
          "type": "bool"
        }
      ],
      "stateMutability": "view",
      "type": "function"
    },
    {
      "inputs": [
        {
          "internalType": "address",
          "name": "wallet",
          "type": "address"
        },
        {
          "internalType": "bytes32[]",
          "name": "proof",
          "type": "bytes32[]"
        }
      ],
      "name": "isValidWhitelistAddress",
      "outputs": [
        {
          "internalType": "bool",
          "name": "",
          "type": "bool"
        }
      ],
      "stateMutability": "view",
      "type": "function"
    },
    {
      "inputs": [
        {
          "internalType": "address",
          "name": "",
          "type": "address"
        }
      ],
      "name": "isWhitelisted",
      "outputs": [
        {
          "internalType": "bool",
          "name": "",
          "type": "bool"
        }
      ],
      "stateMutability": "view",
      "type": "function"
    },
    {
      "inputs": [
        {
          "internalType": "address",
          "name": "wallet",
          "type": "address"
        }
      ],
      "name": "isWhitelistedAddress",
      "outputs": [
        {
          "internalType": "bool",
          "name": "",
          "type": "bool"
        }
      ],
      "stateMutability": "view",
      "type": "function"
    },
    {
      "inputs": [
        {
          "internalType": "address",
          "name": "account",
          "type": "address"
        },
        {
          "internalType": "uint256",
          "name": "amountToMint",
          "type": "uint256"
        }
      ],
      "name": "mint",
      "outputs": [],
      "stateMutability": "nonpayable",
      "type": "function"
    },
    {
      "inputs": [],
      "name": "name",
      "outputs": [
        {
          "internalType": "string",
          "name": "",
          "type": "string"
        }
      ],
      "stateMutability": "view",
      "type": "function"
    },
    {
      "inputs": [],
      "name": "owner",
      "outputs": [
        {
          "internalType": "address",
          "name": "",
          "type": "address"
        }
      ],
      "stateMutability": "view",
      "type": "function"
    },
    {
      "inputs": [],
      "name": "price",
      "outputs": [
        {
          "internalType": "uint256",
          "name": "",
          "type": "uint256"
        }
      ],
      "stateMutability": "view",
      "type": "function"
    },
    {
      "inputs": [
        {
          "internalType": "uint256",
          "name": "amountToPurchase",
          "type": "uint256"
        }
      ],
      "name": "purchaseTokens",
      "outputs": [],
      "stateMutability": "payable",
      "type": "function"
    },
    {
      "inputs": [],
      "name": "root",
      "outputs": [
        {
          "internalType": "bytes32",
          "name": "",
          "type": "bytes32"
        }
      ],
      "stateMutability": "view",
      "type": "function"
    },
    {
      "inputs": [
        {
          "internalType": "uint256",
          "name": "_price",
          "type": "uint256"
        }
      ],
      "name": "setPrice",
      "outputs": [],
      "stateMutability": "nonpayable",
      "type": "function"
    },
    {
      "inputs": [],
      "name": "symbol",
      "outputs": [
        {
          "internalType": "string",
          "name": "",
          "type": "string"
        }
      ],
      "stateMutability": "view",
      "type": "function"
    },
    {
      "inputs": [],
      "name": "totalSupply",
      "outputs": [
        {
          "internalType": "uint256",
          "name": "",
          "type": "uint256"
        }
      ],
      "stateMutability": "view",
      "type": "function"
    },
    {
      "inputs": [
        {
          "internalType": "address",
          "name": "to",
          "type": "address"
        },
        {
          "internalType": "uint256",
          "name": "amount",
          "type": "uint256"
        }
      ],
      "name": "transfer",
      "outputs": [
        {
          "internalType": "bool",
          "name": "",
          "type": "bool"
        }
      ],
      "stateMutability": "nonpayable",
      "type": "function"
    },
    {
      "inputs": [
        {
          "internalType": "address",
          "name": "from",
          "type": "address"
        },
        {
          "internalType": "address",
          "name": "to",
          "type": "address"
        },
        {
          "internalType": "uint256",
          "name": "value",
          "type": "uint256"
        }
      ],
      "name": "transferFrom",
      "outputs": [
        {
          "internalType": "bool",
          "name": "",
          "type": "bool"
        }
      ],
      "stateMutability": "nonpayable",
      "type": "function"
    },
    {
      "inputs": [],
      "name": "walletAddressList",
      "outputs": [
        {
          "internalType": "address[]",
          "name": "",
          "type": "address[]"
        },
        {
          "internalType": "uint256",
          "name": "length",
          "type": "uint256"
        }
      ],
      "stateMutability": "view",
      "type": "function"
    },
    {
      "inputs": [
        {
          "internalType": "address[]",
          "name": "_wallet",
          "type": "address[]"
        }
      ],
      "name": "whitelist",
      "outputs": [],
      "stateMutability": "nonpayable",
      "type": "function"
    }
  ],
  "bytecode": "0x608060405234801562000010575f80fd5b5060405162005b3538038062005b35833981810160405281019062000036919062000bc3565b846001908162000047919062000ed2565b50836002908162000059919062000ed2565b506200006a6200015e60201b60201c565b60075f6101000a81548173ffffffffffffffffffffffffffffffffffffffff021916908373ffffffffffffffffffffffffffffffffffffffff160217905550612710670de0b6b3a764000084620000c2919062000fe3565b620000ce91906200105a565b600b8190555081600a819055508060089080519060200190620000f3929190620007ed565b5062000105816200016560201b60201c565b62000153620001196200015e60201b60201c565b620001296200053660201b60201c565b600a620001379190620011ed565b620f424062000147919062000fe3565b6200053e60201b60201c565b505050505062001427565b5f33905090565b60075f9054906101000a900473ffffffffffffffffffffffffffffffffffffffff1673ffffffffffffffffffffffffffffffffffffffff163373ffffffffffffffffffffffffffffffffffffffff1614620001f7576040517f08c379a0000000000000000000000000000000000000000000000000000000008152600401620001ee90620012c1565b60405180910390fd5b5f5b81518110156200053257600160055f8484815181106200021e576200021d620012e1565b5b602002602001015173ffffffffffffffffffffffffffffffffffffffff1673ffffffffffffffffffffffffffffffffffffffff1681526020019081526020015f205f6101000a81548160ff0219169083151502179055505f60065f8484815181106200028f576200028e620012e1565b5b602002602001015173ffffffffffffffffffffffffffffffffffffffff1673ffffffffffffffffffffffffffffffffffffffff1681526020019081526020015f205f6101000a81548160ff021916908315150217905550818181518110620002fc57620002fb620012e1565b5b602002602001015173ffffffffffffffffffffffffffffffffffffffff167f12c94d2725e3b811140fad6a73350adbd38646149c9a9a62ffc1018bec2ec97c60405160405180910390a25f60095f84848151811062000360576200035f620012e1565b5b602002602001015173ffffffffffffffffffffffffffffffffffffffff1673ffffffffffffffffffffffffffffffffffffffff1681526020019081526020015f208054806020026020016040519081016040528092919081815260200182805480156200042057602002820191905f5260205f20905b815f9054906101000a900473ffffffffffffffffffffffffffffffffffffffff1673ffffffffffffffffffffffffffffffffffffffff1681526020019060010190808311620003d6575b505050505090505f5b81518110156200051a575f60065f8486815181106200044d576200044c620012e1565b5b602002602001015173ffffffffffffffffffffffffffffffffffffffff1673ffffffffffffffffffffffffffffffffffffffff1681526020019081526020015f205f6101000a81548160ff021916908315150217905550818381518110620004ba57620004b9620012e1565b5b602002602001015173ffffffffffffffffffffffffffffffffffffffff167f12c94d2725e3b811140fad6a73350adbd38646149c9a9a62ffc1018bec2ec97c60405160405180910390a2808062000511906200130e565b91505062000429565b5050808062000529906200130e565b915050620001f9565b5050565b5f6012905090565b5f73ffffffffffffffffffffffffffffffffffffffff168273ffffffffffffffffffffffffffffffffffffffff1603620005b1575f6040517fec442f05000000000000000000000000000000000000000000000000000000008152600401620005a891906200136b565b60405180910390fd5b620005c45f8383620005c860201b60201c565b5050565b5f73ffffffffffffffffffffffffffffffffffffffff168373ffffffffffffffffffffffffffffffffffffffff16036200061b57805f808282546200060e919062001386565b92505081905550620006ee565b5f60035f8573ffffffffffffffffffffffffffffffffffffffff1673ffffffffffffffffffffffffffffffffffffffff1681526020019081526020015f2054905081811015620006a8578381836040517fe450d38c0000000000000000000000000000000000000000000000000000000081526004016200069f93929190620013d1565b60405180910390fd5b81810360035f8673ffffffffffffffffffffffffffffffffffffffff1673ffffffffffffffffffffffffffffffffffffffff1681526020019081526020015f2081905550505b5f73ffffffffffffffffffffffffffffffffffffffff168273ffffffffffffffffffffffffffffffffffffffff16036200073657805f80828254039250508190555062000781565b8060035f8473ffffffffffffffffffffffffffffffffffffffff1673ffffffffffffffffffffffffffffffffffffffff1681526020019081526020015f205f82825401925050819055505b8173ffffffffffffffffffffffffffffffffffffffff168373ffffffffffffffffffffffffffffffffffffffff167fddf252ad1be2c89b69c2b068fc378daa952ba7f163c4a11628f55a4df523b3ef83604051620007e091906200140c565b60405180910390a3505050565b828054828255905f5260205f2090810192821562000866579160200282015b8281111562000865578251825f6101000a81548173ffffffffffffffffffffffffffffffffffffffff021916908373ffffffffffffffffffffffffffffffffffffffff160217905550916020019190600101906200080c565b5b50905062000875919062000879565b5090565b5b8082111562000892575f815f9055506001016200087a565b5090565b5f604051905090565b5f80fd5b5f80fd5b5f80fd5b5f80fd5b5f601f19601f8301169050919050565b7f4e487b71000000000000000000000000000000000000000000000000000000005f52604160045260245ffd5b620008f782620008af565b810181811067ffffffffffffffff82111715620009195762000918620008bf565b5b80604052505050565b5f6200092d62000896565b90506200093b8282620008ec565b919050565b5f67ffffffffffffffff8211156200095d576200095c620008bf565b5b6200096882620008af565b9050602081019050919050565b5f5b838110156200099457808201518184015260208101905062000977565b5f8484015250505050565b5f620009b5620009af8462000940565b62000922565b905082815260208101848484011115620009d457620009d3620008ab565b5b620009e184828562000975565b509392505050565b5f82601f83011262000a0057620009ff620008a7565b5b815162000a128482602086016200099f565b91505092915050565b5f819050919050565b62000a2f8162000a1b565b811462000a3a575f80fd5b50565b5f8151905062000a4d8162000a24565b92915050565b5f819050919050565b62000a678162000a53565b811462000a72575f80fd5b50565b5f8151905062000a858162000a5c565b92915050565b5f67ffffffffffffffff82111562000aa85762000aa7620008bf565b5b602082029050602081019050919050565b5f80fd5b5f73ffffffffffffffffffffffffffffffffffffffff82169050919050565b5f62000ae88262000abd565b9050919050565b62000afa8162000adc565b811462000b05575f80fd5b50565b5f8151905062000b188162000aef565b92915050565b5f62000b3462000b2e8462000a8b565b62000922565b9050808382526020820190506020840283018581111562000b5a5762000b5962000ab9565b5b835b8181101562000b87578062000b72888262000b08565b84526020840193505060208101905062000b5c565b5050509392505050565b5f82601f83011262000ba85762000ba7620008a7565b5b815162000bba84826020860162000b1e565b91505092915050565b5f805f805f60a0868803121562000bdf5762000bde6200089f565b5b5f86015167ffffffffffffffff81111562000bff5762000bfe620008a3565b5b62000c0d88828901620009e9565b955050602086015167ffffffffffffffff81111562000c315762000c30620008a3565b5b62000c3f88828901620009e9565b945050604062000c528882890162000a3d565b935050606062000c658882890162000a75565b925050608086015167ffffffffffffffff81111562000c895762000c88620008a3565b5b62000c978882890162000b91565b9150509295509295909350565b5f81519050919050565b7f4e487b71000000000000000000000000000000000000000000000000000000005f52602260045260245ffd5b5f600282049050600182168062000cf357607f821691505b60208210810362000d095762000d0862000cae565b5b50919050565b5f819050815f5260205f209050919050565b5f6020601f8301049050919050565b5f82821b905092915050565b5f6008830262000d6d7fffffffffffffffffffffffffffffffffffffffffffffffffffffffffffffffff8262000d30565b62000d79868362000d30565b95508019841693508086168417925050509392505050565b5f819050919050565b5f62000dba62000db462000dae8462000a1b565b62000d91565b62000a1b565b9050919050565b5f819050919050565b62000dd58362000d9a565b62000ded62000de48262000dc1565b84845462000d3c565b825550505050565b5f90565b62000e0362000df5565b62000e1081848462000dca565b505050565b5b8181101562000e375762000e2b5f8262000df9565b60018101905062000e16565b5050565b601f82111562000e865762000e508162000d0f565b62000e5b8462000d21565b8101602085101562000e6b578190505b62000e8362000e7a8562000d21565b83018262000e15565b50505b505050565b5f82821c905092915050565b5f62000ea85f198460080262000e8b565b1980831691505092915050565b5f62000ec2838362000e97565b9150826002028217905092915050565b62000edd8262000ca4565b67ffffffffffffffff81111562000ef95762000ef8620008bf565b5b62000f05825462000cdb565b62000f1282828562000e3b565b5f60209050601f83116001811462000f48575f841562000f33578287015190505b62000f3f858262000eb5565b86555062000fae565b601f19841662000f588662000d0f565b5f5b8281101562000f815784890151825560018201915060208501945060208101905062000f5a565b8683101562000fa1578489015162000f9d601f89168262000e97565b8355505b6001600288020188555050505b505050505050565b7f4e487b71000000000000000000000000000000000000000000000000000000005f52601160045260245ffd5b5f62000fef8262000a1b565b915062000ffc8362000a1b565b92508282026200100c8162000a1b565b9150828204841483151762001026576200102562000fb6565b5b5092915050565b7f4e487b71000000000000000000000000000000000000000000000000000000005f52601260045260245ffd5b5f620010668262000a1b565b9150620010738362000a1b565b9250826200108657620010856200102d565b5b828204905092915050565b5f8160011c9050919050565b5f808291508390505b6001851115620010ee57808604811115620010c657620010c562000fb6565b5b6001851615620010d65780820291505b8081029050620010e68562001091565b9450620010a6565b94509492505050565b5f82620011085760019050620011da565b8162001117575f9050620011da565b81600181146200113057600281146200113b5762001171565b6001915050620011da565b60ff84111562001150576200114f62000fb6565b5b8360020a9150848211156200116a576200116962000fb6565b5b50620011da565b5060208310610133831016604e8410600b8410161715620011ab5782820a905083811115620011a557620011a462000fb6565b5b620011da565b620011ba84848460016200109d565b92509050818404811115620011d457620011d362000fb6565b5b81810290505b9392505050565b5f60ff82169050919050565b5f620011f98262000a1b565b91506200120683620011e1565b9250620012357fffffffffffffffffffffffffffffffffffffffffffffffffffffffffffffffff8484620010f7565b905092915050565b5f82825260208201905092915050565b7f4f6e6c7920746865206f776e6572206f72206973737565722063616e2063616c5f8201527f6c20746869732066756e6374696f6e0000000000000000000000000000000000602082015250565b5f620012a9602f836200123d565b9150620012b6826200124d565b604082019050919050565b5f6020820190508181035f830152620012da816200129b565b9050919050565b7f4e487b71000000000000000000000000000000000000000000000000000000005f52603260045260245ffd5b5f6200131a8262000a1b565b91507fffffffffffffffffffffffffffffffffffffffffffffffffffffffffffffffff82036200134f576200134e62000fb6565b5b600182019050919050565b620013658162000adc565b82525050565b5f602082019050620013805f8301846200135a565b92915050565b5f620013928262000a1b565b91506200139f8362000a1b565b9250828201905080821115620013ba57620013b962000fb6565b5b92915050565b620013cb8162000a1b565b82525050565b5f606082019050620013e65f8301866200135a565b620013f56020830185620013c0565b620014046040830184620013c0565b949350505050565b5f602082019050620014215f830184620013c0565b92915050565b61470080620014355f395ff3fe608060405260043610610180575f3560e01c80637b97008d116100d0578063a9059cbb11610089578063dd62ed3e11610063578063dd62ed3e146105bf578063ebf0c717146105fb578063ef67441914610625578063fe575a871461064d57610180565b8063a9059cbb1461051f578063bd8aa7801461055b578063d1e74d061461058357610180565b80637b97008d146104215780638da5cb5b1461043d57806391b7f5ed1461046757806395d89b411461048f578063a035b1fe146104b9578063a457c2d7146104e357610180565b8063313ce5671161013d57806340c10f191161011757806340c10f19146103565780635fae05761461037e5780636bf670ef146103ba57806370a08231146103e557610180565b8063313ce567146102b457806339509351146102de5780633af32abf1461031a57610180565b8063041f173f1461018457806306fdde03146101ac578063095ea7b3146101d65780630bef0ec71461021257806318160ddd1461024e57806323b872dd14610278575b5f80fd5b34801561018f575f80fd5b506101aa60048036038101906101a5919061371e565b610689565b005b3480156101b7575f80fd5b506101c0610a3c565b6040516101cd91906137df565b60405180910390f35b3480156101e1575f80fd5b506101fc60048036038101906101f79190613832565b610acc565b604051610209919061388a565b60405180910390f35b34801561021d575f80fd5b50610238600480360381019061023391906138a3565b610eff565b604051610245919061388a565b60405180910390f35b348015610259575f80fd5b50610262610f51565b60405161026f91906138dd565b60405180910390f35b348015610283575f80fd5b5061029e600480360381019061029991906138f6565b610f59565b6040516102ab919061388a565b60405180910390f35b3480156102bf575f80fd5b506102c8611313565b6040516102d59190613961565b60405180910390f35b3480156102e9575f80fd5b5061030460048036038101906102ff9190613832565b61131b565b604051610311919061388a565b60405180910390f35b348015610325575f80fd5b50610340600480360381019061033b91906138a3565b6117b8565b60405161034d919061388a565b60405180910390f35b348015610361575f80fd5b5061037c60048036038101906103779190613832565b6117d5565b005b348015610389575f80fd5b506103a4600480360381019061039f91906138a3565b6118b4565b6040516103b1919061388a565b60405180910390f35b3480156103c5575f80fd5b506103ce611906565b6040516103dc929190613a31565b60405180910390f35b3480156103f0575f80fd5b5061040b600480360381019061040691906138a3565b61199d565b60405161041891906138dd565b60405180910390f35b61043b60048036038101906104369190613a5f565b6119e3565b005b348015610448575f80fd5b50610451611c3a565b60405161045e9190613a99565b60405180910390f35b348015610472575f80fd5b5061048d60048036038101906104889190613a5f565b611c5f565b005b34801561049a575f80fd5b506104a3611cf8565b6040516104b091906137df565b60405180910390f35b3480156104c4575f80fd5b506104cd611d88565b6040516104da91906138dd565b60405180910390f35b3480156104ee575f80fd5b5061050960048036038101906105049190613832565b611d8e565b604051610516919061388a565b60405180910390f35b34801561052a575f80fd5b5061054560048036038101906105409190613832565b6122b5565b604051610552919061388a565b60405180910390f35b348015610566575f80fd5b50610581600480360381019061057c919061371e565b612892565b005b34801561058e575f80fd5b506105a960048036038101906105a49190613ba5565b612c44565b6040516105b6919061388a565b60405180910390f35b3480156105ca575f80fd5b506105e560048036038101906105e09190613bff565b612c85565b6040516105f291906138dd565b60405180910390f35b348015610606575f80fd5b5061060f612d07565b60405161061c9190613c4c565b60405180910390f35b348015610630575f80fd5b5061064b6004803603810190610646919061371e565b612d0d565b005b348015610658575f80fd5b50610673600480360381019061066e91906138a3565b612e38565b604051610680919061388a565b60405180910390f35b60075f9054906101000a900473ffffffffffffffffffffffffffffffffffffffff1673ffffffffffffffffffffffffffffffffffffffff163373ffffffffffffffffffffffffffffffffffffffff1614610718576040517f08c379a000000000000000000000000000000000000000000000000000000000815260040161070f90613cd5565b60405180910390fd5b5f5b8151811015610a38575f60055f84848151811061073a57610739613cf3565b5b602002602001015173ffffffffffffffffffffffffffffffffffffffff1673ffffffffffffffffffffffffffffffffffffffff1681526020019081526020015f205f6101000a81548160ff021916908315150217905550600160065f8484815181106107a9576107a8613cf3565b5b602002602001015173ffffffffffffffffffffffffffffffffffffffff1673ffffffffffffffffffffffffffffffffffffffff1681526020019081526020015f205f6101000a81548160ff02191690831515021790555081818151811061081357610812613cf3565b5b602002602001015173ffffffffffffffffffffffffffffffffffffffff167f330e4aaf2eff46528362ed2dfeccacec7ae123302f30e9214e7634595fb22b0e60405160405180910390a25f60095f84848151811061087457610873613cf3565b5b602002602001015173ffffffffffffffffffffffffffffffffffffffff1673ffffffffffffffffffffffffffffffffffffffff1681526020019081526020015f2080548060200260200160405190810160405280929190818152602001828054801561093257602002820191905f5260205f20905b815f9054906101000a900473ffffffffffffffffffffffffffffffffffffffff1673ffffffffffffffffffffffffffffffffffffffff16815260200190600101908083116108e9575b505050505090505f5b8151811015610a2357600160065f84868151811061095c5761095b613cf3565b5b602002602001015173ffffffffffffffffffffffffffffffffffffffff1673ffffffffffffffffffffffffffffffffffffffff1681526020019081526020015f205f6101000a81548160ff0219169083151502179055508183815181106109c6576109c5613cf3565b5b602002602001015173ffffffffffffffffffffffffffffffffffffffff167f330e4aaf2eff46528362ed2dfeccacec7ae123302f30e9214e7634595fb22b0e60405160405180910390a28080610a1b90613d4d565b91505061093b565b50508080610a3090613d4d565b91505061071a565b5050565b606060018054610a4b90613dc1565b80601f0160208091040260200160405190810160405280929190818152602001828054610a7790613dc1565b8015610ac25780601f10610a9957610100808354040283529160200191610ac2565b820191905f5260205f20905b815481529060010190602001808311610aa557829003601f168201915b5050505050905090565b5f80610ad6612e55565b905060075f9054906101000a900473ffffffffffffffffffffffffffffffffffffffff1673ffffffffffffffffffffffffffffffffffffffff168173ffffffffffffffffffffffffffffffffffffffff16148015610b7a575060055f8573ffffffffffffffffffffffffffffffffffffffff1673ffffffffffffffffffffffffffffffffffffffff1681526020019081526020015f205f9054906101000a900460ff165b15610b9457610b8a818585612e5c565b6001915050610ef9565b60075f9054906101000a900473ffffffffffffffffffffffffffffffffffffffff1673ffffffffffffffffffffffffffffffffffffffff168173ffffffffffffffffffffffffffffffffffffffff16148015610c36575060065f8573ffffffffffffffffffffffffffffffffffffffff1673ffffffffffffffffffffffffffffffffffffffff1681526020019081526020015f205f9054906101000a900460ff165b15610c76576040517f08c379a0000000000000000000000000000000000000000000000000000000008152600401610c6d90613e3b565b60405180910390fd5b60095f8573ffffffffffffffffffffffffffffffffffffffff1673ffffffffffffffffffffffffffffffffffffffff1681526020019081526020015f2081908060018154018082558091505060019003905f5260205f20015f9091909190916101000a81548173ffffffffffffffffffffffffffffffffffffffff021916908373ffffffffffffffffffffffffffffffffffffffff1602179055506001151560055f8373ffffffffffffffffffffffffffffffffffffffff1673ffffffffffffffffffffffffffffffffffffffff1681526020019081526020015f205f9054906101000a900460ff16151514610da1576040517f08c379a0000000000000000000000000000000000000000000000000000000008152600401610d9890613ea3565b60405180910390fd5b6001151560065f8673ffffffffffffffffffffffffffffffffffffffff1673ffffffffffffffffffffffffffffffffffffffff1681526020019081526020015f205f9054906101000a900460ff16151503610e4d576001151560065f8373ffffffffffffffffffffffffffffffffffffffff1673ffffffffffffffffffffffffffffffffffffffff1681526020019081526020015f205f9054906101000a905050506001915050610ef9565b610e58818585612e5c565b60095f8273ffffffffffffffffffffffffffffffffffffffff1673ffffffffffffffffffffffffffffffffffffffff1681526020019081526020015f2084908060018154018082558091505060019003905f5260205f20015f9091909190916101000a81548173ffffffffffffffffffffffffffffffffffffffff021916908373ffffffffffffffffffffffffffffffffffffffff16021790555060019150505b92915050565b5f60065f8373ffffffffffffffffffffffffffffffffffffffff1673ffffffffffffffffffffffffffffffffffffffff1681526020019081526020015f205f9054906101000a900460ff169050919050565b5f8054905090565b5f80610f63612e55565b905060075f9054906101000a900473ffffffffffffffffffffffffffffffffffffffff1673ffffffffffffffffffffffffffffffffffffffff168173ffffffffffffffffffffffffffffffffffffffff16148015611007575060055f8573ffffffffffffffffffffffffffffffffffffffff1673ffffffffffffffffffffffffffffffffffffffff1681526020019081526020015f205f9054906101000a900460ff165b1561102c57611017858285612e6e565b611022858585612f21565b600191505061130c565b60075f9054906101000a900473ffffffffffffffffffffffffffffffffffffffff1673ffffffffffffffffffffffffffffffffffffffff168173ffffffffffffffffffffffffffffffffffffffff161480156110ce575060065f8573ffffffffffffffffffffffffffffffffffffffff1673ffffffffffffffffffffffffffffffffffffffff1681526020019081526020015f205f9054906101000a900460ff165b1561110e576040517f08c379a000000000000000000000000000000000000000000000000000000000815260040161110590613f0b565b60405180910390fd5b60095f8573ffffffffffffffffffffffffffffffffffffffff1673ffffffffffffffffffffffffffffffffffffffff1681526020019081526020015f2081908060018154018082558091505060019003905f5260205f20015f9091909190916101000a81548173ffffffffffffffffffffffffffffffffffffffff021916908373ffffffffffffffffffffffffffffffffffffffff1602179055506001151560065f8673ffffffffffffffffffffffffffffffffffffffff1673ffffffffffffffffffffffffffffffffffffffff1681526020019081526020015f205f9054906101000a900460ff16151503611255576001151560065f8373ffffffffffffffffffffffffffffffffffffffff1673ffffffffffffffffffffffffffffffffffffffff1681526020019081526020015f205f9054906101000a90505050600191505061130c565b611260858285612e6e565b61126b858585612f21565b60095f8273ffffffffffffffffffffffffffffffffffffffff1673ffffffffffffffffffffffffffffffffffffffff1681526020019081526020015f2084908060018154018082558091505060019003905f5260205f20015f9091909190916101000a81548173ffffffffffffffffffffffffffffffffffffffff021916908373ffffffffffffffffffffffffffffffffffffffff16021790555060019150505b9392505050565b5f6012905090565b5f80611325612e55565b905060075f9054906101000a900473ffffffffffffffffffffffffffffffffffffffff1673ffffffffffffffffffffffffffffffffffffffff168173ffffffffffffffffffffffffffffffffffffffff161480156113c9575060055f8573ffffffffffffffffffffffffffffffffffffffff1673ffffffffffffffffffffffffffffffffffffffff1681526020019081526020015f205f9054906101000a900460ff165b156114185761140e8185856113ff60075f9054906101000a900473ffffffffffffffffffffffffffffffffffffffff1689612c85565b6114099190613f29565b612e5c565b60019150506117b2565b60075f9054906101000a900473ffffffffffffffffffffffffffffffffffffffff1673ffffffffffffffffffffffffffffffffffffffff168173ffffffffffffffffffffffffffffffffffffffff161480156114ba575060065f8573ffffffffffffffffffffffffffffffffffffffff1673ffffffffffffffffffffffffffffffffffffffff1681526020019081526020015f205f9054906101000a900460ff165b156114fa576040517f08c379a00000000000000000000000000000000000000000000000000000000081526004016114f190613e3b565b60405180910390fd5b60095f8573ffffffffffffffffffffffffffffffffffffffff1673ffffffffffffffffffffffffffffffffffffffff1681526020019081526020015f2081908060018154018082558091505060019003905f5260205f20015f9091909190916101000a81548173ffffffffffffffffffffffffffffffffffffffff021916908373ffffffffffffffffffffffffffffffffffffffff1602179055506001151560055f8373ffffffffffffffffffffffffffffffffffffffff1673ffffffffffffffffffffffffffffffffffffffff1681526020019081526020015f205f9054906101000a900460ff16151514611625576040517f08c379a000000000000000000000000000000000000000000000000000000000815260040161161c90613fa6565b60405180910390fd5b6001151560065f8673ffffffffffffffffffffffffffffffffffffffff1673ffffffffffffffffffffffffffffffffffffffff1681526020019081526020015f205f9054906101000a900460ff161515036116d1576001151560065f8373ffffffffffffffffffffffffffffffffffffffff1673ffffffffffffffffffffffffffffffffffffffff1681526020019081526020015f205f9054906101000a9050505060019150506117b2565b61171181858561170260075f9054906101000a900473ffffffffffffffffffffffffffffffffffffffff1689612c85565b61170c9190613f29565b612e5c565b60095f8273ffffffffffffffffffffffffffffffffffffffff1673ffffffffffffffffffffffffffffffffffffffff1681526020019081526020015f2084908060018154018082558091505060019003905f5260205f20015f9091909190916101000a81548173ffffffffffffffffffffffffffffffffffffffff021916908373ffffffffffffffffffffffffffffffffffffffff16021790555060019150505b92915050565b6005602052805f5260405f205f915054906101000a900460ff1681565b60075f9054906101000a900473ffffffffffffffffffffffffffffffffffffffff1673ffffffffffffffffffffffffffffffffffffffff163373ffffffffffffffffffffffffffffffffffffffff1614611864576040517f08c379a000000000000000000000000000000000000000000000000000000000815260040161185b90613cd5565b60405180910390fd5b5f81116118a6576040517f08c379a000000000000000000000000000000000000000000000000000000000815260040161189d9061400e565b60405180910390fd5b6118b08282613011565b5050565b5f60055f8373ffffffffffffffffffffffffffffffffffffffff1673ffffffffffffffffffffffffffffffffffffffff1681526020019081526020015f205f9054906101000a900460ff169050919050565b60605f600880805490508180548060200260200160405190810160405280929190818152602001828054801561198e57602002820191905f5260205f20905b815f9054906101000a900473ffffffffffffffffffffffffffffffffffffffff1673ffffffffffffffffffffffffffffffffffffffff1681526020019060010190808311611945575b50505050509150915091509091565b5f60035f8373ffffffffffffffffffffffffffffffffffffffff1673ffffffffffffffffffffffffffffffffffffffff1681526020019081526020015f20549050919050565b6001151560055f3373ffffffffffffffffffffffffffffffffffffffff1673ffffffffffffffffffffffffffffffffffffffff1681526020019081526020015f205f9054906101000a900460ff16151514611a73576040517f08c379a0000000000000000000000000000000000000000000000000000000008152600401611a6a9061409c565b60405180910390fd5b600c5f9054906101000a900460ff1615611ac2576040517f08c379a0000000000000000000000000000000000000000000000000000000008152600401611ab990614104565b60405180910390fd5b6001600c5f6101000a81548160ff021916908315150217905550611ae4611313565b600a611af09190614251565b600b5482611afe919061429b565b611b089190614309565b341015611b4a576040517f08c379a0000000000000000000000000000000000000000000000000000000008152600401611b41906143a9565b60405180910390fd5b5f60075f9054906101000a900473ffffffffffffffffffffffffffffffffffffffff1673ffffffffffffffffffffffffffffffffffffffff1634604051611b90906143f4565b5f6040518083038185875af1925050503d805f8114611bca576040519150601f19603f3d011682016040523d82523d5f602084013e611bcf565b606091505b5050905080611c13576040517f08c379a0000000000000000000000000000000000000000000000000000000008152600401611c0a90614452565b60405180910390fd5b611c1d3383613011565b505f600c5f6101000a81548160ff02191690831515021790555050565b60075f9054906101000a900473ffffffffffffffffffffffffffffffffffffffff1681565b60075f9054906101000a900473ffffffffffffffffffffffffffffffffffffffff1673ffffffffffffffffffffffffffffffffffffffff163373ffffffffffffffffffffffffffffffffffffffff1614611cee576040517f08c379a0000000000000000000000000000000000000000000000000000000008152600401611ce590613cd5565b60405180910390fd5b80600b8190555050565b606060028054611d0790613dc1565b80601f0160208091040260200160405190810160405280929190818152602001828054611d3390613dc1565b8015611d7e5780601f10611d5557610100808354040283529160200191611d7e565b820191905f5260205f20905b815481529060010190602001808311611d6157829003601f168201915b5050505050905090565b600b5481565b5f80611d98612e55565b905060075f9054906101000a900473ffffffffffffffffffffffffffffffffffffffff1673ffffffffffffffffffffffffffffffffffffffff168173ffffffffffffffffffffffffffffffffffffffff16148015611e3c575060055f8573ffffffffffffffffffffffffffffffffffffffff1673ffffffffffffffffffffffffffffffffffffffff1681526020019081526020015f205f9054906101000a900460ff165b15611ed0575f611e4c8286612c85565b905083811015611e97578481856040517fa60f030c000000000000000000000000000000000000000000000000000000008152600401611e8e93929190614470565b60405180910390fd5b611ec560075f9054906101000a900473ffffffffffffffffffffffffffffffffffffffff1686868403612e5c565b6001925050506122af565b60075f9054906101000a900473ffffffffffffffffffffffffffffffffffffffff1673ffffffffffffffffffffffffffffffffffffffff168173ffffffffffffffffffffffffffffffffffffffff16148015611f72575060065f8573ffffffffffffffffffffffffffffffffffffffff1673ffffffffffffffffffffffffffffffffffffffff1681526020019081526020015f205f9054906101000a900460ff165b15611fb2576040517f08c379a0000000000000000000000000000000000000000000000000000000008152600401611fa990613e3b565b60405180910390fd5b60095f8573ffffffffffffffffffffffffffffffffffffffff1673ffffffffffffffffffffffffffffffffffffffff1681526020019081526020015f2081908060018154018082558091505060019003905f5260205f20015f9091909190916101000a81548173ffffffffffffffffffffffffffffffffffffffff021916908373ffffffffffffffffffffffffffffffffffffffff1602179055506001151560055f8373ffffffffffffffffffffffffffffffffffffffff1673ffffffffffffffffffffffffffffffffffffffff1681526020019081526020015f205f9054906101000a900460ff161515146120dd576040517f08c379a00000000000000000000000000000000000000000000000000000000081526004016120d490613fa6565b60405180910390fd5b6001151560065f8673ffffffffffffffffffffffffffffffffffffffff1673ffffffffffffffffffffffffffffffffffffffff1681526020019081526020015f205f9054906101000a900460ff16151503612189576001151560065f8373ffffffffffffffffffffffffffffffffffffffff1673ffffffffffffffffffffffffffffffffffffffff1681526020019081526020015f205f9054906101000a9050505060019150506122af565b5f6121948286612c85565b9050838110156121df578481856040517fa60f030c0000000000000000000000000000000000000000000000000000000081526004016121d693929190614470565b60405180910390fd5b61220d60075f9054906101000a900473ffffffffffffffffffffffffffffffffffffffff1686868403612e5c565b60095f8373ffffffffffffffffffffffffffffffffffffffff1673ffffffffffffffffffffffffffffffffffffffff1681526020019081526020015f2085908060018154018082558091505060019003905f5260205f20015f9091909190916101000a81548173ffffffffffffffffffffffffffffffffffffffff021916908373ffffffffffffffffffffffffffffffffffffffff1602179055506001925050505b92915050565b5f806122bf612e55565b905060075f9054906101000a900473ffffffffffffffffffffffffffffffffffffffff1673ffffffffffffffffffffffffffffffffffffffff168173ffffffffffffffffffffffffffffffffffffffff16148015612363575060055f8573ffffffffffffffffffffffffffffffffffffffff1673ffffffffffffffffffffffffffffffffffffffff1681526020019081526020015f205f9054906101000a900460ff165b1561237d57612373818585612f21565b600191505061288c565b60075f9054906101000a900473ffffffffffffffffffffffffffffffffffffffff1673ffffffffffffffffffffffffffffffffffffffff168173ffffffffffffffffffffffffffffffffffffffff1614801561241f575060065f8573ffffffffffffffffffffffffffffffffffffffff1673ffffffffffffffffffffffffffffffffffffffff1681526020019081526020015f205f9054906101000a900460ff165b1561245f576040517f08c379a000000000000000000000000000000000000000000000000000000000815260040161245690613f0b565b60405180910390fd5b60095f8573ffffffffffffffffffffffffffffffffffffffff1673ffffffffffffffffffffffffffffffffffffffff1681526020019081526020015f2081908060018154018082558091505060019003905f5260205f20015f9091909190916101000a81548173ffffffffffffffffffffffffffffffffffffffff021916908373ffffffffffffffffffffffffffffffffffffffff1602179055506001151560065f8673ffffffffffffffffffffffffffffffffffffffff1673ffffffffffffffffffffffffffffffffffffffff1681526020019081526020015f205f9054906101000a900460ff161515036125a6576001151560065f8373ffffffffffffffffffffffffffffffffffffffff1673ffffffffffffffffffffffffffffffffffffffff1681526020019081526020015f205f9054906101000a90505050600191505061288c565b60055f8273ffffffffffffffffffffffffffffffffffffffff1673ffffffffffffffffffffffffffffffffffffffff1681526020019081526020015f205f9054906101000a900460ff1661262f576040517f08c379a0000000000000000000000000000000000000000000000000000000008152600401612626906144ef565b60405180910390fd5b60055f8573ffffffffffffffffffffffffffffffffffffffff1673ffffffffffffffffffffffffffffffffffffffff1681526020019081526020015f205f9054906101000a900460ff166126b8576040517f08c379a00000000000000000000000000000000000000000000000000000000081526004016126af90614557565b60405180910390fd5b826126c28261199d565b1015612703576040517f08c379a00000000000000000000000000000000000000000000000000000000081526004016126fa906145bf565b60405180910390fd5b60065f8273ffffffffffffffffffffffffffffffffffffffff1673ffffffffffffffffffffffffffffffffffffffff1681526020019081526020015f205f9054906101000a900460ff161580156127a1575060065f8573ffffffffffffffffffffffffffffffffffffffff1673ffffffffffffffffffffffffffffffffffffffff1681526020019081526020015f205f9054906101000a900460ff16155b6127e0576040517f08c379a00000000000000000000000000000000000000000000000000000000081526004016127d79061464d565b60405180910390fd5b6127eb818585612f21565b60095f8273ffffffffffffffffffffffffffffffffffffffff1673ffffffffffffffffffffffffffffffffffffffff1681526020019081526020015f2084908060018154018082558091505060019003905f5260205f20015f9091909190916101000a81548173ffffffffffffffffffffffffffffffffffffffff021916908373ffffffffffffffffffffffffffffffffffffffff16021790555060019150505b92915050565b60075f9054906101000a900473ffffffffffffffffffffffffffffffffffffffff1673ffffffffffffffffffffffffffffffffffffffff163373ffffffffffffffffffffffffffffffffffffffff1614612921576040517f08c379a000000000000000000000000000000000000000000000000000000000815260040161291890613cd5565b60405180910390fd5b5f5b8151811015612c4057600160055f84848151811061294457612943613cf3565b5b602002602001015173ffffffffffffffffffffffffffffffffffffffff1673ffffffffffffffffffffffffffffffffffffffff1681526020019081526020015f205f6101000a81548160ff0219169083151502179055505f60065f8484815181106129b2576129b1613cf3565b5b602002602001015173ffffffffffffffffffffffffffffffffffffffff1673ffffffffffffffffffffffffffffffffffffffff1681526020019081526020015f205f6101000a81548160ff021916908315150217905550818181518110612a1c57612a1b613cf3565b5b602002602001015173ffffffffffffffffffffffffffffffffffffffff167f12c94d2725e3b811140fad6a73350adbd38646149c9a9a62ffc1018bec2ec97c60405160405180910390a25f60095f848481518110612a7d57612a7c613cf3565b5b602002602001015173ffffffffffffffffffffffffffffffffffffffff1673ffffffffffffffffffffffffffffffffffffffff1681526020019081526020015f20805480602002602001604051908101604052809291908181526020018280548015612b3b57602002820191905f5260205f20905b815f9054906101000a900473ffffffffffffffffffffffffffffffffffffffff1673ffffffffffffffffffffffffffffffffffffffff1681526020019060010190808311612af2575b505050505090505f5b8151811015612c2b575f60065f848681518110612b6457612b63613cf3565b5b602002602001015173ffffffffffffffffffffffffffffffffffffffff1673ffffffffffffffffffffffffffffffffffffffff1681526020019081526020015f205f6101000a81548160ff021916908315150217905550818381518110612bce57612bcd613cf3565b5b602002602001015173ffffffffffffffffffffffffffffffffffffffff167f12c94d2725e3b811140fad6a73350adbd38646149c9a9a62ffc1018bec2ec97c60405160405180910390a28080612c2390613d4d565b915050612b44565b50508080612c3890613d4d565b915050612923565b5050565b5f8083604051602001612c5791906146b0565b604051602081830303815290604052805190602001209050612c7c83600a5483613090565b91505092915050565b5f60045f8473ffffffffffffffffffffffffffffffffffffffff1673ffffffffffffffffffffffffffffffffffffffff1681526020019081526020015f205f8373ffffffffffffffffffffffffffffffffffffffff1673ffffffffffffffffffffffffffffffffffffffff1681526020019081526020015f2054905092915050565b600a5481565b60075f9054906101000a900473ffffffffffffffffffffffffffffffffffffffff1673ffffffffffffffffffffffffffffffffffffffff163373ffffffffffffffffffffffffffffffffffffffff1614612d9c576040517f08c379a0000000000000000000000000000000000000000000000000000000008152600401612d9390613cd5565b60405180910390fd5b5f5b8151811015612e34576008828281518110612dbc57612dbb613cf3565b5b6020026020010151908060018154018082558091505060019003905f5260205f20015f9091909190916101000a81548173ffffffffffffffffffffffffffffffffffffffff021916908373ffffffffffffffffffffffffffffffffffffffff1602179055508080612e2c90613d4d565b915050612d9e565b5050565b6006602052805f5260405f205f915054906101000a900460ff1681565b5f33905090565b612e6983838360016130a6565b505050565b5f612e798484612c85565b90507fffffffffffffffffffffffffffffffffffffffffffffffffffffffffffffffff8114612f1b5781811015612eeb578281836040517ffb8f41b2000000000000000000000000000000000000000000000000000000008152600401612ee293929190614470565b60405180910390fd5b612f1a60075f9054906101000a900473ffffffffffffffffffffffffffffffffffffffff16848484035f6130a6565b5b50505050565b5f73ffffffffffffffffffffffffffffffffffffffff168373ffffffffffffffffffffffffffffffffffffffff1603612f91575f6040517f96c6fd1e000000000000000000000000000000000000000000000000000000008152600401612f889190613a99565b60405180910390fd5b5f73ffffffffffffffffffffffffffffffffffffffff168273ffffffffffffffffffffffffffffffffffffffff1603613001575f6040517fec442f05000000000000000000000000000000000000000000000000000000008152600401612ff89190613a99565b60405180910390fd5b61300c8383836132b7565b505050565b5f73ffffffffffffffffffffffffffffffffffffffff168273ffffffffffffffffffffffffffffffffffffffff1603613081575f6040517fec442f050000000000000000000000000000000000000000000000000000000081526004016130789190613a99565b60405180910390fd5b61308c5f83836132b7565b5050565b5f8261309c85846134d1565b1490509392505050565b5f73ffffffffffffffffffffffffffffffffffffffff168473ffffffffffffffffffffffffffffffffffffffff1603613116575f6040517fe602df0500000000000000000000000000000000000000000000000000000000815260040161310d9190613a99565b60405180910390fd5b5f73ffffffffffffffffffffffffffffffffffffffff168373ffffffffffffffffffffffffffffffffffffffff1603613186575f6040517f94280d6200000000000000000000000000000000000000000000000000000000815260040161317d9190613a99565b60405180910390fd5b8160045f60075f9054906101000a900473ffffffffffffffffffffffffffffffffffffffff1673ffffffffffffffffffffffffffffffffffffffff1673ffffffffffffffffffffffffffffffffffffffff1681526020019081526020015f205f8573ffffffffffffffffffffffffffffffffffffffff1673ffffffffffffffffffffffffffffffffffffffff1681526020019081526020015f208190555080156132b1578273ffffffffffffffffffffffffffffffffffffffff1660075f9054906101000a900473ffffffffffffffffffffffffffffffffffffffff1673ffffffffffffffffffffffffffffffffffffffff167f8c5be1e5ebec7d5bd14f71427d1e84f3dd0314c0f7b2291e5b200ac8c7c3b925846040516132a891906138dd565b60405180910390a35b50505050565b5f73ffffffffffffffffffffffffffffffffffffffff168373ffffffffffffffffffffffffffffffffffffffff160361330657805f808282546132fa9190613f29565b925050819055506133d6565b5f60035f8573ffffffffffffffffffffffffffffffffffffffff1673ffffffffffffffffffffffffffffffffffffffff1681526020019081526020015f2054905081811015613390578381836040517fe450d38c00000000000000000000000000000000000000000000000000000000815260040161338793929190614470565b60405180910390fd5b81810360035f8673ffffffffffffffffffffffffffffffffffffffff1673ffffffffffffffffffffffffffffffffffffffff1681526020019081526020015f2081905550505b5f73ffffffffffffffffffffffffffffffffffffffff168273ffffffffffffffffffffffffffffffffffffffff160361341c57805f808282540392505081905550613467565b8060035f8473ffffffffffffffffffffffffffffffffffffffff1673ffffffffffffffffffffffffffffffffffffffff1681526020019081526020015f205f82825401925050819055505b8173ffffffffffffffffffffffffffffffffffffffff168373ffffffffffffffffffffffffffffffffffffffff167fddf252ad1be2c89b69c2b068fc378daa952ba7f163c4a11628f55a4df523b3ef836040516134c491906138dd565b60405180910390a3505050565b5f808290505f5b845181101561351a57613505828683815181106134f8576134f7613cf3565b5b6020026020010151613525565b9150808061351290613d4d565b9150506134d8565b508091505092915050565b5f81831061353c57613537828461354f565b613547565b613546838361354f565b5b905092915050565b5f825f528160205260405f20905092915050565b5f604051905090565b5f80fd5b5f80fd5b5f80fd5b5f601f19601f8301169050919050565b7f4e487b71000000000000000000000000000000000000000000000000000000005f52604160045260245ffd5b6135be82613578565b810181811067ffffffffffffffff821117156135dd576135dc613588565b5b80604052505050565b5f6135ef613563565b90506135fb82826135b5565b919050565b5f67ffffffffffffffff82111561361a57613619613588565b5b602082029050602081019050919050565b5f80fd5b5f73ffffffffffffffffffffffffffffffffffffffff82169050919050565b5f6136588261362f565b9050919050565b6136688161364e565b8114613672575f80fd5b50565b5f813590506136838161365f565b92915050565b5f61369b61369684613600565b6135e6565b905080838252602082019050602084028301858111156136be576136bd61362b565b5b835b818110156136e757806136d38882613675565b8452602084019350506020810190506136c0565b5050509392505050565b5f82601f83011261370557613704613574565b5b8135613715848260208601613689565b91505092915050565b5f602082840312156137335761373261356c565b5b5f82013567ffffffffffffffff8111156137505761374f613570565b5b61375c848285016136f1565b91505092915050565b5f81519050919050565b5f82825260208201905092915050565b5f5b8381101561379c578082015181840152602081019050613781565b5f8484015250505050565b5f6137b182613765565b6137bb818561376f565b93506137cb81856020860161377f565b6137d481613578565b840191505092915050565b5f6020820190508181035f8301526137f781846137a7565b905092915050565b5f819050919050565b613811816137ff565b811461381b575f80fd5b50565b5f8135905061382c81613808565b92915050565b5f80604083850312156138485761384761356c565b5b5f61385585828601613675565b92505060206138668582860161381e565b9150509250929050565b5f8115159050919050565b61388481613870565b82525050565b5f60208201905061389d5f83018461387b565b92915050565b5f602082840312156138b8576138b761356c565b5b5f6138c584828501613675565b91505092915050565b6138d7816137ff565b82525050565b5f6020820190506138f05f8301846138ce565b92915050565b5f805f6060848603121561390d5761390c61356c565b5b5f61391a86828701613675565b935050602061392b86828701613675565b925050604061393c8682870161381e565b9150509250925092565b5f60ff82169050919050565b61395b81613946565b82525050565b5f6020820190506139745f830184613952565b92915050565b5f81519050919050565b5f82825260208201905092915050565b5f819050602082019050919050565b6139ac8161364e565b82525050565b5f6139bd83836139a3565b60208301905092915050565b5f602082019050919050565b5f6139df8261397a565b6139e98185613984565b93506139f483613994565b805f5b83811015613a24578151613a0b88826139b2565b9750613a16836139c9565b9250506001810190506139f7565b5085935050505092915050565b5f6040820190508181035f830152613a4981856139d5565b9050613a5860208301846138ce565b9392505050565b5f60208284031215613a7457613a7361356c565b5b5f613a818482850161381e565b91505092915050565b613a938161364e565b82525050565b5f602082019050613aac5f830184613a8a565b92915050565b5f67ffffffffffffffff821115613acc57613acb613588565b5b602082029050602081019050919050565b5f819050919050565b613aef81613add565b8114613af9575f80fd5b50565b5f81359050613b0a81613ae6565b92915050565b5f613b22613b1d84613ab2565b6135e6565b90508083825260208201905060208402830185811115613b4557613b4461362b565b5b835b81811015613b6e5780613b5a8882613afc565b845260208401935050602081019050613b47565b5050509392505050565b5f82601f830112613b8c57613b8b613574565b5b8135613b9c848260208601613b10565b91505092915050565b5f8060408385031215613bbb57613bba61356c565b5b5f613bc885828601613675565b925050602083013567ffffffffffffffff811115613be957613be8613570565b5b613bf585828601613b78565b9150509250929050565b5f8060408385031215613c1557613c1461356c565b5b5f613c2285828601613675565b9250506020613c3385828601613675565b9150509250929050565b613c4681613add565b82525050565b5f602082019050613c5f5f830184613c3d565b92915050565b7f4f6e6c7920746865206f776e6572206f72206973737565722063616e2063616c5f8201527f6c20746869732066756e6374696f6e0000000000000000000000000000000000602082015250565b5f613cbf602f8361376f565b9150613cca82613c65565b604082019050919050565b5f6020820190508181035f830152613cec81613cb3565b9050919050565b7f4e487b71000000000000000000000000000000000000000000000000000000005f52603260045260245ffd5b7f4e487b71000000000000000000000000000000000000000000000000000000005f52601160045260245ffd5b5f613d57826137ff565b91507fffffffffffffffffffffffffffffffffffffffffffffffffffffffffffffffff8203613d8957613d88613d20565b5b600182019050919050565b7f4e487b71000000000000000000000000000000000000000000000000000000005f52602260045260245ffd5b5f6002820490506001821680613dd857607f821691505b602082108103613deb57613dea613d94565b5b50919050565b7f5370656e64657220697320426c61636b6c6973746564000000000000000000005f82015250565b5f613e2560168361376f565b9150613e3082613df1565b602082019050919050565b5f6020820190508181035f830152613e5281613e19565b9050919050565b7f417070726f76657220697320626c61636b6c69737465640000000000000000005f82015250565b5f613e8d60178361376f565b9150613e9882613e59565b602082019050919050565b5f6020820190508181035f830152613eba81613e81565b9050919050565b7f526563697069656e7420697320426c61636b6c697374656400000000000000005f82015250565b5f613ef560188361376f565b9150613f0082613ec1565b602082019050919050565b5f6020820190508181035f830152613f2281613ee9565b9050919050565b5f613f33826137ff565b9150613f3e836137ff565b9250828201905080821115613f5657613f55613d20565b5b92915050565b7f53656e64657220697320626c61636b6c697374656400000000000000000000005f82015250565b5f613f9060158361376f565b9150613f9b82613f5c565b602082019050919050565b5f6020820190508181035f830152613fbd81613f84565b9050919050565b7f4d696e7420616d6f756e742073686f756c646e2774206265207a65726f0000005f82015250565b5f613ff8601d8361376f565b915061400382613fc4565b602082019050919050565b5f6020820190508181035f83015261402581613fec565b9050919050565b7f4f6e6c792077686974656c69737465642077616c6c65742063616e2063616c6c5f8201527f20746869732066756e6374696f6e000000000000000000000000000000000000602082015250565b5f614086602e8361376f565b91506140918261402c565b604082019050919050565b5f6020820190508181035f8301526140b38161407a565b9050919050565b7f63616e6e6f74207265656e7465720000000000000000000000000000000000005f82015250565b5f6140ee600e8361376f565b91506140f9826140ba565b602082019050919050565b5f6020820190508181035f83015261411b816140e2565b9050919050565b5f8160011c9050919050565b5f808291508390505b60018511156141775780860481111561415357614152613d20565b5b60018516156141625780820291505b808102905061417085614122565b9450614137565b94509492505050565b5f8261418f576001905061424a565b8161419c575f905061424a565b81600181146141b257600281146141bc576141eb565b600191505061424a565b60ff8411156141ce576141cd613d20565b5b8360020a9150848211156141e5576141e4613d20565b5b5061424a565b5060208310610133831016604e8410600b84101617156142205782820a90508381111561421b5761421a613d20565b5b61424a565b61422d848484600161412e565b9250905081840481111561424457614243613d20565b5b81810290505b9392505050565b5f61425b826137ff565b915061426683613946565b92506142937fffffffffffffffffffffffffffffffffffffffffffffffffffffffffffffffff8484614180565b905092915050565b5f6142a5826137ff565b91506142b0836137ff565b92508282026142be816137ff565b915082820484148315176142d5576142d4613d20565b5b5092915050565b7f4e487b71000000000000000000000000000000000000000000000000000000005f52601260045260245ffd5b5f614313826137ff565b915061431e836137ff565b92508261432e5761432d6142dc565b5b828204905092915050565b7f45746865722073656e74206973206c657373207468616e2072657175697265645f8201527f20616d6f756e7400000000000000000000000000000000000000000000000000602082015250565b5f61439360278361376f565b915061439e82614339565b604082019050919050565b5f6020820190508181035f8301526143c081614387565b9050919050565b5f81905092915050565b50565b5f6143df5f836143c7565b91506143ea826143d1565b5f82019050919050565b5f6143fe826143d4565b9150819050919050565b7f4661696c75726521204574686572206e6f742073656e740000000000000000005f82015250565b5f61443c60178361376f565b915061444782614408565b602082019050919050565b5f6020820190508181035f83015261446981614430565b9050919050565b5f6060820190506144835f830186613a8a565b61449060208301856138ce565b61449d60408301846138ce565b949350505050565b7f53656e646572206973206e6f742077686974656c6973746564000000000000005f82015250565b5f6144d960198361376f565b91506144e4826144a5565b602082019050919050565b5f6020820190508181035f830152614506816144cd565b9050919050565b7f526563697069656e74206973206e6f742077686974656c6973746564000000005f82015250565b5f614541601c8361376f565b915061454c8261450d565b602082019050919050565b5f6020820190508181035f83015261456e81614535565b9050919050565b7f496e73756666696369656e742062616c616e63650000000000000000000000005f82015250565b5f6145a960148361376f565b91506145b482614575565b602082019050919050565b5f6020820190508181035f8301526145d68161459d565b9050919050565b7f4569746865722073656e646572206f7220726563697069656e7420697320626c5f8201527f61636b6c69737465640000000000000000000000000000000000000000000000602082015250565b5f61463760298361376f565b9150614642826145dd565b604082019050919050565b5f6020820190508181035f8301526146648161462b565b9050919050565b5f8160601b9050919050565b5f6146818261466b565b9050919050565b5f61469282614677565b9050919050565b6146aa6146a58261364e565b614688565b82525050565b5f6146bb8284614699565b6014820191508190509291505056fea2646970667358221220696261c32f0ec7073fbf4523cdd752c605b39f54ff966241169a5226e5e68dad64736f6c63430008140033",
  "linkReferences": {},
  "deployedLinkReferences": {}
}